{
  "contractName": "BaseCrowdsale",
  "abi": [
    {
      "constant": true,
      "inputs": [],
      "name": "hasClosed",
      "outputs": [
        {
          "name": "",
          "type": "bool"
        }
      ],
      "payable": false,
      "stateMutability": "view",
      "type": "function"
    },
    {
      "constant": true,
      "inputs": [
        {
          "name": "",
          "type": "address"
        }
      ],
      "name": "balances",
      "outputs": [
        {
          "name": "",
          "type": "uint256"
        }
      ],
      "payable": false,
      "stateMutability": "view",
      "type": "function"
    },
    {
      "constant": true,
      "inputs": [],
      "name": "rate",
      "outputs": [
        {
          "name": "",
          "type": "uint256"
        }
      ],
      "payable": false,
      "stateMutability": "view",
      "type": "function"
    },
    {
      "constant": true,
      "inputs": [],
      "name": "weiRaised",
      "outputs": [
        {
          "name": "",
          "type": "uint256"
        }
      ],
      "payable": false,
      "stateMutability": "view",
      "type": "function"
    },
    {
      "constant": true,
      "inputs": [],
      "name": "deliveryTime",
      "outputs": [
        {
          "name": "",
          "type": "uint256"
        }
      ],
      "payable": false,
      "stateMutability": "view",
      "type": "function"
    },
    {
      "constant": true,
      "inputs": [],
      "name": "closingTime",
      "outputs": [
        {
          "name": "",
          "type": "uint256"
        }
      ],
      "payable": false,
      "stateMutability": "view",
      "type": "function"
    },
    {
      "constant": true,
      "inputs": [],
      "name": "tokensSold",
      "outputs": [
        {
          "name": "",
          "type": "uint256"
        }
      ],
      "payable": false,
      "stateMutability": "view",
      "type": "function"
    },
    {
      "constant": true,
      "inputs": [],
      "name": "wallet",
      "outputs": [
        {
          "name": "",
          "type": "address"
        }
      ],
      "payable": false,
      "stateMutability": "view",
      "type": "function"
    },
    {
      "constant": true,
      "inputs": [],
      "name": "owner",
      "outputs": [
        {
          "name": "",
          "type": "address"
        }
      ],
      "payable": false,
      "stateMutability": "view",
      "type": "function"
    },
    {
      "constant": true,
      "inputs": [],
      "name": "whitelist",
      "outputs": [
        {
          "name": "",
          "type": "address"
        }
      ],
      "payable": false,
      "stateMutability": "view",
      "type": "function"
    },
    {
      "constant": true,
      "inputs": [],
      "name": "limit",
      "outputs": [
        {
          "name": "",
          "type": "uint256"
        }
      ],
      "payable": false,
      "stateMutability": "view",
      "type": "function"
    },
    {
      "constant": true,
      "inputs": [],
      "name": "openingTime",
      "outputs": [
        {
          "name": "",
          "type": "uint256"
        }
      ],
      "payable": false,
      "stateMutability": "view",
      "type": "function"
    },
    {
      "constant": true,
      "inputs": [],
      "name": "remainingTokens",
      "outputs": [
        {
          "name": "",
          "type": "uint256"
        }
      ],
      "payable": false,
      "stateMutability": "view",
      "type": "function"
    },
    {
      "constant": true,
      "inputs": [],
      "name": "tokenWallet",
      "outputs": [
        {
          "name": "",
          "type": "address"
        }
      ],
      "payable": false,
      "stateMutability": "view",
      "type": "function"
    },
    {
      "constant": false,
      "inputs": [
        {
          "name": "_beneficiary",
          "type": "address"
        }
      ],
      "name": "buyTokens",
      "outputs": [],
      "payable": true,
      "stateMutability": "payable",
      "type": "function"
    },
    {
      "constant": false,
      "inputs": [
        {
          "name": "newOwner",
          "type": "address"
        }
      ],
      "name": "transferOwnership",
      "outputs": [],
      "payable": false,
      "stateMutability": "nonpayable",
      "type": "function"
    },
    {
      "constant": true,
      "inputs": [],
      "name": "token",
      "outputs": [
        {
          "name": "",
          "type": "address"
        }
      ],
      "payable": false,
      "stateMutability": "view",
      "type": "function"
    },
    {
      "inputs": [
        {
          "name": "_token",
          "type": "address"
        },
        {
          "name": "_whitelist",
          "type": "address"
        },
        {
          "name": "_tokenWallet",
          "type": "address"
        },
        {
          "name": "_wallet",
          "type": "address"
        },
        {
          "name": "_rate",
          "type": "uint256"
        },
        {
          "name": "_openingTime",
          "type": "uint256"
        },
        {
          "name": "_closingTime",
          "type": "uint256"
        },
        {
          "name": "_deliveryTime",
          "type": "uint256"
        },
        {
          "name": "_limit",
          "type": "uint256"
        }
      ],
      "payable": false,
      "stateMutability": "nonpayable",
      "type": "constructor"
    },
    {
      "payable": true,
      "stateMutability": "payable",
      "type": "fallback"
    },
    {
      "anonymous": false,
      "inputs": [
        {
          "indexed": true,
          "name": "previousOwner",
          "type": "address"
        },
        {
          "indexed": true,
          "name": "newOwner",
          "type": "address"
        }
      ],
      "name": "OwnershipTransferred",
      "type": "event"
    },
    {
      "anonymous": false,
      "inputs": [
        {
          "indexed": true,
          "name": "purchaser",
          "type": "address"
        },
        {
          "indexed": true,
          "name": "beneficiary",
          "type": "address"
        },
        {
          "indexed": false,
          "name": "value",
          "type": "uint256"
        },
        {
          "indexed": false,
          "name": "amount",
          "type": "uint256"
        }
      ],
      "name": "TokenPurchase",
      "type": "event"
    },
    {
      "constant": false,
      "inputs": [],
      "name": "withdrawTokens",
      "outputs": [],
      "payable": false,
      "stateMutability": "nonpayable",
      "type": "function"
    }
  ],
  "bytecode": "0x60606040526000600a55341561001457600080fd5b6040516101208061122b8339810160405280805190602001909190805190602001909190805190602001909190805190602001909190805190602001909190805190602001909190805190602001909190805190602001909190805190602001909190505083838887898d60008311151561008e57600080fd5b600073ffffffffffffffffffffffffffffffffffffffff168273ffffffffffffffffffffffffffffffffffffffff16141515156100ca57600080fd5b600073ffffffffffffffffffffffffffffffffffffffff168173ffffffffffffffffffffffffffffffffffffffff161415151561010657600080fd5b8260028190555081600160006101000a81548173ffffffffffffffffffffffffffffffffffffffff021916908373ffffffffffffffffffffffffffffffffffffffff160217905550806000806101000a81548173ffffffffffffffffffffffffffffffffffffffff021916908373ffffffffffffffffffffffffffffffffffffffff160217905550505050600073ffffffffffffffffffffffffffffffffffffffff168173ffffffffffffffffffffffffffffffffffffffff16141515156101cd57600080fd5b80600460006101000a81548173ffffffffffffffffffffffffffffffffffffffff021916908373ffffffffffffffffffffffffffffffffffffffff1602179055505042821015151561021e57600080fd5b81811015151561022d57600080fd5b8160058190555080600681905550505033600860006101000a81548173ffffffffffffffffffffffffffffffffffffffff021916908373ffffffffffffffffffffffffffffffffffffffff16021790555060008873ffffffffffffffffffffffffffffffffffffffff16141515156102a457600080fd5b81421015156102b257600080fd5b6000811115156102c157600080fd5b6283d6004201821015156102d457600080fd5b87600960006101000a81548173ffffffffffffffffffffffffffffffffffffffff021916908373ffffffffffffffffffffffffffffffffffffffff16021790555081600b8190555080600c8190555061033e61034c64010000000002610ea0176401000000009004565b50505050505050505061034e565b565b610ece8061035d6000396000f3006060604052600436106100fc576000357c0100000000000000000000000000000000000000000000000000000000900463ffffffff1680631515bc2b1461010757806327e235e3146101345780632c4e722e146101815780634042b66f146101aa57806345fe5a83146101d35780634b6753bc146101fc578063518ab2a814610225578063521eb2731461024e5780638d8f2adb146102a35780638da5cb5b146102b857806393e59dc11461030d578063a4d66daf14610362578063b7a8807c1461038b578063bf583903146103b4578063bff99c6c146103dd578063ec8ac4d814610432578063f2fde38b14610460578063fc0c546a14610499575b610105336104ee565b005b341561011257600080fd5b61011a6105bc565b604051808215151515815260200191505060405180910390f35b341561013f57600080fd5b61016b600480803573ffffffffffffffffffffffffffffffffffffffff169060200190919050506105c8565b6040518082815260200191505060405180910390f35b341561018c57600080fd5b6101946105e0565b6040518082815260200191505060405180910390f35b34156101b557600080fd5b6101bd6105e6565b6040518082815260200191505060405180910390f35b34156101de57600080fd5b6101e66105ec565b6040518082815260200191505060405180910390f35b341561020757600080fd5b61020f6105f2565b6040518082815260200191505060405180910390f35b341561023057600080fd5b6102386105f8565b6040518082815260200191505060405180910390f35b341561025957600080fd5b6102616105fe565b604051808273ffffffffffffffffffffffffffffffffffffffff1673ffffffffffffffffffffffffffffffffffffffff16815260200191505060405180910390f35b34156102ae57600080fd5b6102b6610624565b005b34156102c357600080fd5b6102cb61063f565b604051808273ffffffffffffffffffffffffffffffffffffffff1673ffffffffffffffffffffffffffffffffffffffff16815260200191505060405180910390f35b341561031857600080fd5b610320610665565b604051808273ffffffffffffffffffffffffffffffffffffffff1673ffffffffffffffffffffffffffffffffffffffff16815260200191505060405180910390f35b341561036d57600080fd5b61037561068b565b6040518082815260200191505060405180910390f35b341561039657600080fd5b61039e610691565b6040518082815260200191505060405180910390f35b34156103bf57600080fd5b6103c7610697565b6040518082815260200191505060405180910390f35b34156103e857600080fd5b6103f06107d3565b604051808273ffffffffffffffffffffffffffffffffffffffff1673ffffffffffffffffffffffffffffffffffffffff16815260200191505060405180910390f35b61045e600480803573ffffffffffffffffffffffffffffffffffffffff169060200190919050506104ee565b005b341561046b57600080fd5b610497600480803573ffffffffffffffffffffffffffffffffffffffff169060200190919050506107f9565b005b34156104a457600080fd5b6104ac610951565b604051808273ffffffffffffffffffffffffffffffffffffffff1673ffffffffffffffffffffffffffffffffffffffff16815260200191505060405180910390f35b6000803491506104fe8383610976565b61050782610a71565b905061051e82600354610a8f90919063ffffffff16565b60038190555061052e8382610aad565b8273ffffffffffffffffffffffffffffffffffffffff163373ffffffffffffffffffffffffffffffffffffffff167f623b3804fa71d67900d064613da8f94b9617215ee90799290593e1745087ad188484604051808381526020018281526020019250505060405180910390a36105a58383610ae9565b6105ad610aed565b6105b78383610b51565b505050565b60006006544211905090565b60076020528060005260406000206000915090505481565b60025481565b60035481565b600b5481565b60065481565b600a5481565b600160009054906101000a900473ffffffffffffffffffffffffffffffffffffffff1681565b600b54421015151561063557600080fd5b61063d610b55565b565b600860009054906101000a900473ffffffffffffffffffffffffffffffffffffffff1681565b600960009054906101000a900473ffffffffffffffffffffffffffffffffffffffff1681565b600c5481565b60055481565b60008060009054906101000a900473ffffffffffffffffffffffffffffffffffffffff1673ffffffffffffffffffffffffffffffffffffffff1663dd62ed3e600460009054906101000a900473ffffffffffffffffffffffffffffffffffffffff16306000604051602001526040518363ffffffff167c0100000000000000000000000000000000000000000000000000000000028152600401808373ffffffffffffffffffffffffffffffffffffffff1673ffffffffffffffffffffffffffffffffffffffff1681526020018273ffffffffffffffffffffffffffffffffffffffff1673ffffffffffffffffffffffffffffffffffffffff16815260200192505050602060405180830381600087803b15156107b357600080fd5b6102c65a03f115156107c457600080fd5b50505060405180519050905090565b600460009054906101000a900473ffffffffffffffffffffffffffffffffffffffff1681565b600860009054906101000a900473ffffffffffffffffffffffffffffffffffffffff1673ffffffffffffffffffffffffffffffffffffffff163373ffffffffffffffffffffffffffffffffffffffff1614151561085557600080fd5b600073ffffffffffffffffffffffffffffffffffffffff168173ffffffffffffffffffffffffffffffffffffffff161415151561089157600080fd5b8073ffffffffffffffffffffffffffffffffffffffff16600860009054906101000a900473ffffffffffffffffffffffffffffffffffffffff1673ffffffffffffffffffffffffffffffffffffffff167f8be0079c531659141344cd1fd0a4f28419497f9722a3daafe3b4186f6b6457e060405160405180910390a380600860006101000a81548173ffffffffffffffffffffffffffffffffffffffff021916908373ffffffffffffffffffffffffffffffffffffffff16021790555050565b6000809054906101000a900473ffffffffffffffffffffffffffffffffffffffff1681565b81600960009054906101000a900473ffffffffffffffffffffffffffffffffffffffff1673ffffffffffffffffffffffffffffffffffffffff16633af32abf826000604051602001526040518263ffffffff167c0100000000000000000000000000000000000000000000000000000000028152600401808273ffffffffffffffffffffffffffffffffffffffff1673ffffffffffffffffffffffffffffffffffffffff168152602001915050602060405180830381600087803b1515610a3c57600080fd5b6102c65a03f11515610a4d57600080fd5b505050604051805190501515610a6257600080fd5b610a6c8383610c0d565b505050565b6000610a8860025483610c3a90919063ffffffff16565b9050919050565b6000808284019050838110151515610aa357fe5b8091505092915050565b610ac281600a54610a8f90919063ffffffff16565b600a81905550600a54600c5410151515610adb57600080fd5b610ae58282610c75565b5050565b5050565b600160009054906101000a900473ffffffffffffffffffffffffffffffffffffffff1673ffffffffffffffffffffffffffffffffffffffff166108fc349081150290604051600060405180830381858888f193505050501515610b4f57600080fd5b565b5050565b6000610b5f6105bc565b1515610b6a57600080fd5b600760003373ffffffffffffffffffffffffffffffffffffffff1673ffffffffffffffffffffffffffffffffffffffff168152602001908152602001600020549050600081111515610bbb57600080fd5b6000600760003373ffffffffffffffffffffffffffffffffffffffff1673ffffffffffffffffffffffffffffffffffffffff16815260200190815260200160002081905550610c0a3382610d0e565b50565b6005544210158015610c2157506006544211155b1515610c2c57600080fd5b610c368282610e50565b5050565b6000806000841415610c4f5760009150610c6e565b8284029050828482811515610c6057fe5b04141515610c6a57fe5b8091505b5092915050565b610cc781600760008573ffffffffffffffffffffffffffffffffffffffff1673ffffffffffffffffffffffffffffffffffffffff16815260200190815260200160002054610a8f90919063ffffffff16565b600760008473ffffffffffffffffffffffffffffffffffffffff1673ffffffffffffffffffffffffffffffffffffffff168152602001908152602001600020819055505050565b6000809054906101000a900473ffffffffffffffffffffffffffffffffffffffff1673ffffffffffffffffffffffffffffffffffffffff166323b872dd600460009054906101000a900473ffffffffffffffffffffffffffffffffffffffff1684846000604051602001526040518463ffffffff167c0100000000000000000000000000000000000000000000000000000000028152600401808473ffffffffffffffffffffffffffffffffffffffff1673ffffffffffffffffffffffffffffffffffffffff1681526020018373ffffffffffffffffffffffffffffffffffffffff1673ffffffffffffffffffffffffffffffffffffffff1681526020018281526020019350505050602060405180830381600087803b1515610e3057600080fd5b6102c65a03f11515610e4157600080fd5b50505060405180519050505050565b600073ffffffffffffffffffffffffffffffffffffffff168273ffffffffffffffffffffffffffffffffffffffff1614151515610e8c57600080fd5b60008114151515610e9c57600080fd5b5050565b5600a165627a7a72305820f5c564a95b1c3fecaca891bab90241302126efb02e5126aa188ceb55802512b90029",
  "source": "pragma solidity ^ 0.4.18;\n\nimport \"zeppelin-solidity/contracts/crowdsale/emission/AllowanceCrowdsale.sol\";\nimport \"zeppelin-solidity/contracts/crowdsale/distribution/PostDeliveryCrowdsale.sol\";\nimport \"zeppelin-solidity/contracts/token/ERC20/BurnableToken.sol\";\nimport \"zeppelin-solidity/contracts/ownership/Ownable.sol\";\nimport \"./Whitelist.sol\";\n\n\n/**\n * @title BaseCrowdsale\n * @dev BaseCrowdsale is a base contract for managing a VU token crowdsale\n * Crowdsale that locks tokens from withdrawal until special time.\n *\n * Based on references from OpenZeppelin: https://github.com/OpenZeppelin/zeppelin-solidity\n */\ncontract BaseCrowdsale is AllowanceCrowdsale, PostDeliveryCrowdsale, Ownable {\n    // whitelist data provider\n    Whitelist public whitelist;\n    // amount of tokens sold\n    uint public tokensSold = 0;\n    uint public deliveryTime;\n    uint public limit;\n\n    /**\n    * @dev Reverts if beneficiary is not whitelisted.\n    */\n    modifier onlyWhitelisted(address _beneficiary) {\n        require(whitelist.isWhitelisted(_beneficiary));\n        _;\n    }\n\n    /**\n    * @dev Constructor\n    * @param _token Address of the token being sold\n    * @param _whitelist the list of whitelisted users\n    * @param _tokenWallet Address holding the tokens, which has approved allowance to the crowdsale\n    * @param _wallet Address where collected funds will be forwarded to\n    * @param _rate How many token units a buyer gets per wei\n    * @param _openingTime Crowdsale opening time\n    * @param _closingTime Crowdsale closing time\n    */\n    function BaseCrowdsale(\n        ERC20 _token,\n        address _whitelist,\n        address _tokenWallet,\n        address _wallet,\n        uint _rate,\n        uint _openingTime,\n        uint _closingTime,\n        uint _deliveryTime,\n        uint _limit)\n    public\n        Crowdsale(_rate, _wallet, _token)\n        AllowanceCrowdsale(_tokenWallet)\n        TimedCrowdsale(_openingTime, _closingTime)\n    {\n        require(_whitelist != 0x0);\n        require(now < _deliveryTime);\n        require(_limit > 0);\n        // we know that the end is planned for ~June 30th, just to be sure that\n        // _deliveryTime will not be unexpectedly big (mistake during deployment, for example)\n        require(_deliveryTime < now + 100 days);\n\n        whitelist = Whitelist(_whitelist);\n\n        deliveryTime = _deliveryTime;\n        limit = _limit;\n\n        _init();\n    }\n\n    /**\n    * @dev Withdraw tokens only after delivery date\n    */\n    function withdrawTokens() public {\n        require(now >= deliveryTime);\n        super.withdrawTokens();\n    }\n\n    /**\n    * @dev Override for extensions that require a custom crowdsale initialization flow\n    */\n    function _init()\n    internal\n    {\n        // optional override\n    }\n\n    /**\n    * @dev Extend parent behavior requiring beneficiary to be in whitelist.\n    * @param _beneficiary Token beneficiary\n    * @param _weiAmount Amount of wei contributed\n    */\n    function _preValidatePurchase(address _beneficiary, uint _weiAmount)\n    internal\n    onlyWhitelisted(_beneficiary)\n    {\n        super._preValidatePurchase(_beneficiary, _weiAmount);\n    }\n\n    /**\n    * @dev Overrides parent\n    * @param _beneficiary Token purchaser\n    * @param _tokenAmount Amount of tokens purchased\n    */\n    function _processPurchase(address _beneficiary, uint _tokenAmount)\n    internal\n    {\n        tokensSold = tokensSold.add(_tokenAmount);\n        require(limit >= tokensSold);\n\n        PostDeliveryCrowdsale._processPurchase(_beneficiary, _tokenAmount);\n    }\n}\n",
  "sourcePath": "/Users/ahiatsevich/Development/blockchain/immersive-entertainment-contracts/contracts/crowdsale/BaseCrowdsale.sol",
  "compiler": {
    "name": "solc",
    "version": "0.4.19+commit.c4cbbb05.Emscripten.clang"
  },
  "schemaVersion": "2.0.0",
  "updatedAt": "2018-04-06T09:54:35.914Z"
}