{
  "contractName": "ICOCrowdsaleTestable",
  "abi": [
    {
      "constant": true,
      "inputs": [],
      "name": "MAX_LIMIT",
      "outputs": [
        {
          "name": "",
          "type": "uint256"
        }
      ],
      "payable": false,
      "stateMutability": "view",
      "type": "function"
    },
    {
      "constant": true,
      "inputs": [],
      "name": "hasClosed",
      "outputs": [
        {
          "name": "",
          "type": "bool"
        }
      ],
      "payable": false,
      "stateMutability": "view",
      "type": "function"
    },
    {
      "constant": true,
      "inputs": [
        {
          "name": "",
          "type": "address"
        }
      ],
      "name": "balances",
      "outputs": [
        {
          "name": "",
          "type": "uint256"
        }
      ],
      "payable": false,
      "stateMutability": "view",
      "type": "function"
    },
    {
      "constant": true,
      "inputs": [],
      "name": "rate",
      "outputs": [
        {
          "name": "",
          "type": "uint256"
        }
      ],
      "payable": false,
      "stateMutability": "view",
      "type": "function"
    },
    {
      "constant": true,
      "inputs": [],
      "name": "weiRaised",
      "outputs": [
        {
          "name": "",
          "type": "uint256"
        }
      ],
      "payable": false,
      "stateMutability": "view",
      "type": "function"
    },
    {
      "constant": true,
      "inputs": [],
      "name": "deliveryTime",
      "outputs": [
        {
          "name": "",
          "type": "uint256"
        }
      ],
      "payable": false,
      "stateMutability": "view",
      "type": "function"
    },
    {
      "constant": true,
      "inputs": [],
      "name": "closingTime",
      "outputs": [
        {
          "name": "",
          "type": "uint256"
        }
      ],
      "payable": false,
      "stateMutability": "view",
      "type": "function"
    },
    {
      "constant": true,
      "inputs": [],
      "name": "tokensSold",
      "outputs": [
        {
          "name": "",
          "type": "uint256"
        }
      ],
      "payable": false,
      "stateMutability": "view",
      "type": "function"
    },
    {
      "constant": true,
      "inputs": [],
      "name": "wallet",
      "outputs": [
        {
          "name": "",
          "type": "address"
        }
      ],
      "payable": false,
      "stateMutability": "view",
      "type": "function"
    },
    {
      "constant": true,
      "inputs": [],
      "name": "RATE",
      "outputs": [
        {
          "name": "",
          "type": "uint256"
        }
      ],
      "payable": false,
      "stateMutability": "view",
      "type": "function"
    },
    {
      "constant": false,
      "inputs": [],
      "name": "withdrawTokens",
      "outputs": [],
      "payable": false,
      "stateMutability": "nonpayable",
      "type": "function"
    },
    {
      "constant": true,
      "inputs": [],
      "name": "owner",
      "outputs": [
        {
          "name": "",
          "type": "address"
        }
      ],
      "payable": false,
      "stateMutability": "view",
      "type": "function"
    },
    {
      "constant": true,
      "inputs": [],
      "name": "whitelist",
      "outputs": [
        {
          "name": "",
          "type": "address"
        }
      ],
      "payable": false,
      "stateMutability": "view",
      "type": "function"
    },
    {
      "constant": true,
      "inputs": [],
      "name": "limit",
      "outputs": [
        {
          "name": "",
          "type": "uint256"
        }
      ],
      "payable": false,
      "stateMutability": "view",
      "type": "function"
    },
    {
      "constant": true,
      "inputs": [],
      "name": "openingTime",
      "outputs": [
        {
          "name": "",
          "type": "uint256"
        }
      ],
      "payable": false,
      "stateMutability": "view",
      "type": "function"
    },
    {
      "constant": true,
      "inputs": [],
      "name": "remainingTokens",
      "outputs": [
        {
          "name": "",
          "type": "uint256"
        }
      ],
      "payable": false,
      "stateMutability": "view",
      "type": "function"
    },
    {
      "constant": true,
      "inputs": [],
      "name": "tokenWallet",
      "outputs": [
        {
          "name": "",
          "type": "address"
        }
      ],
      "payable": false,
      "stateMutability": "view",
      "type": "function"
    },
    {
      "constant": false,
      "inputs": [
        {
          "name": "_beneficiary",
          "type": "address"
        }
      ],
      "name": "buyTokens",
      "outputs": [],
      "payable": true,
      "stateMutability": "payable",
      "type": "function"
    },
    {
      "constant": false,
      "inputs": [
        {
          "name": "newOwner",
          "type": "address"
        }
      ],
      "name": "transferOwnership",
      "outputs": [],
      "payable": false,
      "stateMutability": "nonpayable",
      "type": "function"
    },
    {
      "constant": true,
      "inputs": [],
      "name": "token",
      "outputs": [
        {
          "name": "",
          "type": "address"
        }
      ],
      "payable": false,
      "stateMutability": "view",
      "type": "function"
    },
    {
      "inputs": [
        {
          "name": "_token",
          "type": "address"
        },
        {
          "name": "_whitelist",
          "type": "address"
        },
        {
          "name": "_tokenWallet",
          "type": "address"
        },
        {
          "name": "_wallet",
          "type": "address"
        },
        {
          "name": "_deliveryTime",
          "type": "uint256"
        }
      ],
      "payable": false,
      "stateMutability": "nonpayable",
      "type": "constructor"
    },
    {
      "payable": true,
      "stateMutability": "payable",
      "type": "fallback"
    },
    {
      "anonymous": false,
      "inputs": [
        {
          "indexed": true,
          "name": "previousOwner",
          "type": "address"
        },
        {
          "indexed": true,
          "name": "newOwner",
          "type": "address"
        }
      ],
      "name": "OwnershipTransferred",
      "type": "event"
    },
    {
      "anonymous": false,
      "inputs": [
        {
          "indexed": true,
          "name": "purchaser",
          "type": "address"
        },
        {
          "indexed": true,
          "name": "beneficiary",
          "type": "address"
        },
        {
          "indexed": false,
          "name": "value",
          "type": "uint256"
        },
        {
          "indexed": false,
          "name": "amount",
          "type": "uint256"
        }
      ],
      "name": "TokenPurchase",
      "type": "event"
    }
  ],
  "bytecode": "0x60606040526000600a55341561001457600080fd5b60405160a080620012a4833981016040528080519060200190919080519060200190919080519060200190919080519060200190919080519060200190919050508484848442620d2f00420186868686866117708787876b01743b34e18439b50200000083838887898d60008311151561008d57600080fd5b600073ffffffffffffffffffffffffffffffffffffffff168273ffffffffffffffffffffffffffffffffffffffff16141515156100c957600080fd5b600073ffffffffffffffffffffffffffffffffffffffff168173ffffffffffffffffffffffffffffffffffffffff161415151561010557600080fd5b8260028190555081600160006101000a81548173ffffffffffffffffffffffffffffffffffffffff021916908373ffffffffffffffffffffffffffffffffffffffff160217905550806000806101000a81548173ffffffffffffffffffffffffffffffffffffffff021916908373ffffffffffffffffffffffffffffffffffffffff160217905550505050600073ffffffffffffffffffffffffffffffffffffffff168173ffffffffffffffffffffffffffffffffffffffff16141515156101cc57600080fd5b80600460006101000a81548173ffffffffffffffffffffffffffffffffffffffff021916908373ffffffffffffffffffffffffffffffffffffffff1602179055505042821015151561021d57600080fd5b81811015151561022c57600080fd5b8160058190555080600681905550505033600860006101000a81548173ffffffffffffffffffffffffffffffffffffffff021916908373ffffffffffffffffffffffffffffffffffffffff16021790555060008873ffffffffffffffffffffffffffffffffffffffff16141515156102a357600080fd5b81421015156102b157600080fd5b6000811115156102c057600080fd5b6283d6004201821015156102d357600080fd5b87600960006101000a81548173ffffffffffffffffffffffffffffffffffffffff021916908373ffffffffffffffffffffffffffffffffffffffff16021790555081600b8190555080600c8190555061033d61037064010000000002610ef4176401000000009004565b5050505050505050505050505050505061177060028190555068f3f20b8dfa69d00000600c819055505050505050610372565b565b610f2280620003826000396000f300606060405260043610610112576000357c0100000000000000000000000000000000000000000000000000000000900463ffffffff168063114cccd21461011d5780631515bc2b1461014657806327e235e3146101735780632c4e722e146101c05780634042b66f146101e957806345fe5a83146102125780634b6753bc1461023b578063518ab2a814610264578063521eb2731461028d578063664e9704146102e25780638d8f2adb1461030b5780638da5cb5b1461032057806393e59dc114610375578063a4d66daf146103ca578063b7a8807c146103f3578063bf5839031461041c578063bff99c6c14610445578063ec8ac4d81461049a578063f2fde38b146104c8578063fc0c546a14610501575b61011b33610556565b005b341561012857600080fd5b610130610624565b6040518082815260200191505060405180910390f35b341561015157600080fd5b610159610631565b604051808215151515815260200191505060405180910390f35b341561017e57600080fd5b6101aa600480803573ffffffffffffffffffffffffffffffffffffffff1690602001909190505061063d565b6040518082815260200191505060405180910390f35b34156101cb57600080fd5b6101d3610655565b6040518082815260200191505060405180910390f35b34156101f457600080fd5b6101fc61065b565b6040518082815260200191505060405180910390f35b341561021d57600080fd5b610225610661565b6040518082815260200191505060405180910390f35b341561024657600080fd5b61024e610667565b6040518082815260200191505060405180910390f35b341561026f57600080fd5b61027761066d565b6040518082815260200191505060405180910390f35b341561029857600080fd5b6102a0610673565b604051808273ffffffffffffffffffffffffffffffffffffffff1673ffffffffffffffffffffffffffffffffffffffff16815260200191505060405180910390f35b34156102ed57600080fd5b6102f5610699565b6040518082815260200191505060405180910390f35b341561031657600080fd5b61031e61069f565b005b341561032b57600080fd5b6103336106ba565b604051808273ffffffffffffffffffffffffffffffffffffffff1673ffffffffffffffffffffffffffffffffffffffff16815260200191505060405180910390f35b341561038057600080fd5b6103886106e0565b604051808273ffffffffffffffffffffffffffffffffffffffff1673ffffffffffffffffffffffffffffffffffffffff16815260200191505060405180910390f35b34156103d557600080fd5b6103dd610706565b6040518082815260200191505060405180910390f35b34156103fe57600080fd5b61040661070c565b6040518082815260200191505060405180910390f35b341561042757600080fd5b61042f610712565b6040518082815260200191505060405180910390f35b341561045057600080fd5b610458610841565b604051808273ffffffffffffffffffffffffffffffffffffffff1673ffffffffffffffffffffffffffffffffffffffff16815260200191505060405180910390f35b6104c6600480803573ffffffffffffffffffffffffffffffffffffffff16906020019091905050610556565b005b34156104d357600080fd5b6104ff600480803573ffffffffffffffffffffffffffffffffffffffff16906020019091905050610867565b005b341561050c57600080fd5b6105146109bf565b604051808273ffffffffffffffffffffffffffffffffffffffff1673ffffffffffffffffffffffffffffffffffffffff16815260200191505060405180910390f35b60008034915061056683836109e4565b61056f82610ad2565b905061058682600354610af090919063ffffffff16565b6003819055506105968382610b0e565b8273ffffffffffffffffffffffffffffffffffffffff163373ffffffffffffffffffffffffffffffffffffffff167f623b3804fa71d67900d064613da8f94b9617215ee90799290593e1745087ad188484604051808381526020018281526020019250505060405180910390a361060d8383610b4a565b610615610b4e565b61061f8383610bb2565b505050565b68f3f20b8dfa69d0000081565b60006006544211905090565b60076020528060005260406000206000915090505481565b60025481565b60035481565b600b5481565b60065481565b600a5481565b600160009054906101000a900473ffffffffffffffffffffffffffffffffffffffff1681565b61177081565b600b5442101515156106b057600080fd5b6106b8610bb6565b565b600860009054906101000a900473ffffffffffffffffffffffffffffffffffffffff1681565b600960009054906101000a900473ffffffffffffffffffffffffffffffffffffffff1681565b600c5481565b60055481565b60008060009054906101000a900473ffffffffffffffffffffffffffffffffffffffff1673ffffffffffffffffffffffffffffffffffffffff1663dd62ed3e600460009054906101000a900473ffffffffffffffffffffffffffffffffffffffff16306040518363ffffffff167c0100000000000000000000000000000000000000000000000000000000028152600401808373ffffffffffffffffffffffffffffffffffffffff1673ffffffffffffffffffffffffffffffffffffffff1681526020018273ffffffffffffffffffffffffffffffffffffffff1673ffffffffffffffffffffffffffffffffffffffff16815260200192505050602060405180830381600087803b151561082557600080fd5b5af1151561083257600080fd5b50505060405180519050905090565b600460009054906101000a900473ffffffffffffffffffffffffffffffffffffffff1681565b600860009054906101000a900473ffffffffffffffffffffffffffffffffffffffff1673ffffffffffffffffffffffffffffffffffffffff163373ffffffffffffffffffffffffffffffffffffffff161415156108c357600080fd5b600073ffffffffffffffffffffffffffffffffffffffff168173ffffffffffffffffffffffffffffffffffffffff16141515156108ff57600080fd5b8073ffffffffffffffffffffffffffffffffffffffff16600860009054906101000a900473ffffffffffffffffffffffffffffffffffffffff1673ffffffffffffffffffffffffffffffffffffffff167f8be0079c531659141344cd1fd0a4f28419497f9722a3daafe3b4186f6b6457e060405160405180910390a380600860006101000a81548173ffffffffffffffffffffffffffffffffffffffff021916908373ffffffffffffffffffffffffffffffffffffffff16021790555050565b6000809054906101000a900473ffffffffffffffffffffffffffffffffffffffff1681565b81600960009054906101000a900473ffffffffffffffffffffffffffffffffffffffff1673ffffffffffffffffffffffffffffffffffffffff16633af32abf826040518263ffffffff167c0100000000000000000000000000000000000000000000000000000000028152600401808273ffffffffffffffffffffffffffffffffffffffff1673ffffffffffffffffffffffffffffffffffffffff168152602001915050602060405180830381600087803b1515610aa157600080fd5b5af11515610aae57600080fd5b505050604051805190501515610ac357600080fd5b610acd8383610c6e565b505050565b6000610ae960025483610c9b90919063ffffffff16565b9050919050565b6000808284019050838110151515610b0457fe5b8091505092915050565b610b2381600a54610af090919063ffffffff16565b600a81905550600a54600c5410151515610b3c57600080fd5b610b468282610cd6565b5050565b5050565b600160009054906101000a900473ffffffffffffffffffffffffffffffffffffffff1673ffffffffffffffffffffffffffffffffffffffff166108fc349081150290604051600060405180830381858888f193505050501515610bb057600080fd5b565b5050565b6000610bc0610631565b1515610bcb57600080fd5b600760003373ffffffffffffffffffffffffffffffffffffffff1673ffffffffffffffffffffffffffffffffffffffff168152602001908152602001600020549050600081111515610c1c57600080fd5b6000600760003373ffffffffffffffffffffffffffffffffffffffff1673ffffffffffffffffffffffffffffffffffffffff16815260200190815260200160002081905550610c6b3382610d6f565b50565b6005544210158015610c8257506006544211155b1515610c8d57600080fd5b610c978282610ea4565b5050565b6000806000841415610cb05760009150610ccf565b8284029050828482811515610cc157fe5b04141515610ccb57fe5b8091505b5092915050565b610d2881600760008573ffffffffffffffffffffffffffffffffffffffff1673ffffffffffffffffffffffffffffffffffffffff16815260200190815260200160002054610af090919063ffffffff16565b600760008473ffffffffffffffffffffffffffffffffffffffff1673ffffffffffffffffffffffffffffffffffffffff168152602001908152602001600020819055505050565b6000809054906101000a900473ffffffffffffffffffffffffffffffffffffffff1673ffffffffffffffffffffffffffffffffffffffff166323b872dd600460009054906101000a900473ffffffffffffffffffffffffffffffffffffffff1684846040518463ffffffff167c0100000000000000000000000000000000000000000000000000000000028152600401808473ffffffffffffffffffffffffffffffffffffffff1673ffffffffffffffffffffffffffffffffffffffff1681526020018373ffffffffffffffffffffffffffffffffffffffff1673ffffffffffffffffffffffffffffffffffffffff1681526020018281526020019350505050602060405180830381600087803b1515610e8857600080fd5b5af11515610e9557600080fd5b50505060405180519050505050565b600073ffffffffffffffffffffffffffffffffffffffff168273ffffffffffffffffffffffffffffffffffffffff1614151515610ee057600080fd5b60008114151515610ef057600080fd5b5050565b5600a165627a7a7230582052d76e456a5f5686c2acb33bfa4851b2fb3a3683b825586285a165421a955d3a0029",
  "source": "pragma solidity ^ 0.4.18;\n\nimport \"../crowdsale/ICOCrowdsale.sol\";\n\n\n/**\n* @title ICOCrowdsaleTestable\n* @dev Designed just for testing purposes\n*/\ncontract ICOCrowdsaleTestable is ICOCrowdsale {\n    uint public constant RATE = 6000;\n    uint public constant MAX_LIMIT = 4500000 * (10**15);\n\n    function ICOCrowdsaleTestable(\n        ERC20 _token,\n        address _whitelist,\n        address _tokenWallet,\n        address _wallet,\n        uint _deliveryTime)\n    public\n        ICOCrowdsale(\n            _token,\n            _whitelist,\n            _tokenWallet,\n            _wallet,\n            now,\n            now + 10 days,\n            _deliveryTime)\n    {\n        rate = RATE;\n        limit = MAX_LIMIT;\n    }\n}\n",
  "sourcePath": "/media/jeroen/temp/vu.token/contracts/helpers/ICOCrowdsaleTestable.sol",
  "compiler": {
    "name": "solc",
    "version": "0.4.21+commit.dfe3193c.Emscripten.clang"
  },
  "schemaVersion": "2.0.0",
  "updatedAt": "2018-04-05T21:38:47.549Z"
}