{
  "contractName": "PresaleCrowdsale",
  "abi": [
    {
      "constant": true,
      "inputs": [],
      "name": "hasClosed",
      "outputs": [
        {
          "name": "",
          "type": "bool"
        }
      ],
      "payable": false,
      "stateMutability": "view",
      "type": "function"
    },
    {
      "constant": true,
      "inputs": [],
      "name": "PHASE2_LIMIT",
      "outputs": [
        {
          "name": "",
          "type": "uint256"
        }
      ],
      "payable": false,
      "stateMutability": "view",
      "type": "function"
    },
    {
      "constant": true,
      "inputs": [
        {
          "name": "",
          "type": "address"
        }
      ],
      "name": "balances",
      "outputs": [
        {
          "name": "",
          "type": "uint256"
        }
      ],
      "payable": false,
      "stateMutability": "view",
      "type": "function"
    },
    {
      "constant": true,
      "inputs": [],
      "name": "rate",
      "outputs": [
        {
          "name": "",
          "type": "uint256"
        }
      ],
      "payable": false,
      "stateMutability": "view",
      "type": "function"
    },
    {
      "constant": true,
      "inputs": [
        {
          "name": "",
          "type": "uint256"
        }
      ],
      "name": "phases",
      "outputs": [
        {
          "name": "rate",
          "type": "uint256"
        },
        {
          "name": "cap",
          "type": "uint256"
        },
        {
          "name": "limit",
          "type": "uint256"
        }
      ],
      "payable": false,
      "stateMutability": "view",
      "type": "function"
    },
    {
      "constant": true,
      "inputs": [],
      "name": "PHASE3_RATE",
      "outputs": [
        {
          "name": "",
          "type": "uint256"
        }
      ],
      "payable": false,
      "stateMutability": "view",
      "type": "function"
    },
    {
      "constant": true,
      "inputs": [],
      "name": "weiRaised",
      "outputs": [
        {
          "name": "",
          "type": "uint256"
        }
      ],
      "payable": false,
      "stateMutability": "view",
      "type": "function"
    },
    {
      "constant": true,
      "inputs": [],
      "name": "deliveryTime",
      "outputs": [
        {
          "name": "",
          "type": "uint256"
        }
      ],
      "payable": false,
      "stateMutability": "view",
      "type": "function"
    },
    {
      "constant": true,
      "inputs": [],
      "name": "closingTime",
      "outputs": [
        {
          "name": "",
          "type": "uint256"
        }
      ],
      "payable": false,
      "stateMutability": "view",
      "type": "function"
    },
    {
      "constant": true,
      "inputs": [],
      "name": "PHASE2_CAP",
      "outputs": [
        {
          "name": "",
          "type": "uint256"
        }
      ],
      "payable": false,
      "stateMutability": "view",
      "type": "function"
    },
    {
      "constant": true,
      "inputs": [],
      "name": "tokensSold",
      "outputs": [
        {
          "name": "",
          "type": "uint256"
        }
      ],
      "payable": false,
      "stateMutability": "view",
      "type": "function"
    },
    {
      "constant": true,
      "inputs": [],
      "name": "wallet",
      "outputs": [
        {
          "name": "",
          "type": "address"
        }
      ],
      "payable": false,
      "stateMutability": "view",
      "type": "function"
    },
    {
      "constant": false,
      "inputs": [],
      "name": "withdrawTokens",
      "outputs": [],
      "payable": false,
      "stateMutability": "nonpayable",
      "type": "function"
    },
    {
      "constant": true,
      "inputs": [],
      "name": "owner",
      "outputs": [
        {
          "name": "",
          "type": "address"
        }
      ],
      "payable": false,
      "stateMutability": "view",
      "type": "function"
    },
    {
      "constant": true,
      "inputs": [],
      "name": "whitelist",
      "outputs": [
        {
          "name": "",
          "type": "address"
        }
      ],
      "payable": false,
      "stateMutability": "view",
      "type": "function"
    },
    {
      "constant": true,
      "inputs": [],
      "name": "limit",
      "outputs": [
        {
          "name": "",
          "type": "uint256"
        }
      ],
      "payable": false,
      "stateMutability": "view",
      "type": "function"
    },
    {
      "constant": true,
      "inputs": [],
      "name": "PHASE1_RATE",
      "outputs": [
        {
          "name": "",
          "type": "uint256"
        }
      ],
      "payable": false,
      "stateMutability": "view",
      "type": "function"
    },
    {
      "constant": true,
      "inputs": [],
      "name": "openingTime",
      "outputs": [
        {
          "name": "",
          "type": "uint256"
        }
      ],
      "payable": false,
      "stateMutability": "view",
      "type": "function"
    },
    {
      "constant": true,
      "inputs": [],
      "name": "PHASE2_RATE",
      "outputs": [
        {
          "name": "",
          "type": "uint256"
        }
      ],
      "payable": false,
      "stateMutability": "view",
      "type": "function"
    },
    {
      "constant": true,
      "inputs": [],
      "name": "PHASE1_LIMIT",
      "outputs": [
        {
          "name": "",
          "type": "uint256"
        }
      ],
      "payable": false,
      "stateMutability": "view",
      "type": "function"
    },
    {
      "constant": true,
      "inputs": [],
      "name": "remainingTokens",
      "outputs": [
        {
          "name": "",
          "type": "uint256"
        }
      ],
      "payable": false,
      "stateMutability": "view",
      "type": "function"
    },
    {
      "constant": true,
      "inputs": [],
      "name": "tokenWallet",
      "outputs": [
        {
          "name": "",
          "type": "address"
        }
      ],
      "payable": false,
      "stateMutability": "view",
      "type": "function"
    },
    {
      "constant": true,
      "inputs": [],
      "name": "PHASE3_CAP",
      "outputs": [
        {
          "name": "",
          "type": "uint256"
        }
      ],
      "payable": false,
      "stateMutability": "view",
      "type": "function"
    },
    {
      "constant": true,
      "inputs": [],
      "name": "PHASE1_CAP",
      "outputs": [
        {
          "name": "",
          "type": "uint256"
        }
      ],
      "payable": false,
      "stateMutability": "view",
      "type": "function"
    },
    {
      "constant": true,
      "inputs": [],
      "name": "PHASE3_LIMIT",
      "outputs": [
        {
          "name": "",
          "type": "uint256"
        }
      ],
      "payable": false,
      "stateMutability": "view",
      "type": "function"
    },
    {
      "constant": false,
      "inputs": [
        {
          "name": "_beneficiary",
          "type": "address"
        }
      ],
      "name": "buyTokens",
      "outputs": [],
      "payable": true,
      "stateMutability": "payable",
      "type": "function"
    },
    {
      "constant": false,
      "inputs": [
        {
          "name": "newOwner",
          "type": "address"
        }
      ],
      "name": "transferOwnership",
      "outputs": [],
      "payable": false,
      "stateMutability": "nonpayable",
      "type": "function"
    },
    {
      "constant": true,
      "inputs": [],
      "name": "token",
      "outputs": [
        {
          "name": "",
          "type": "address"
        }
      ],
      "payable": false,
      "stateMutability": "view",
      "type": "function"
    },
    {
      "inputs": [
        {
          "name": "_token",
          "type": "address"
        },
        {
          "name": "_whitelist",
          "type": "address"
        },
        {
          "name": "_tokenWallet",
          "type": "address"
        },
        {
          "name": "_wallet",
          "type": "address"
        },
        {
          "name": "_openingTime",
          "type": "uint256"
        },
        {
          "name": "_closingTime",
          "type": "uint256"
        },
        {
          "name": "_deliveryTime",
          "type": "uint256"
        }
      ],
      "payable": false,
      "stateMutability": "nonpayable",
      "type": "constructor"
    },
    {
      "payable": true,
      "stateMutability": "payable",
      "type": "fallback"
    },
    {
      "anonymous": false,
      "inputs": [
        {
          "indexed": true,
          "name": "previousOwner",
          "type": "address"
        },
        {
          "indexed": true,
          "name": "newOwner",
          "type": "address"
        }
      ],
      "name": "OwnershipTransferred",
      "type": "event"
    },
    {
      "anonymous": false,
      "inputs": [
        {
          "indexed": true,
          "name": "purchaser",
          "type": "address"
        },
        {
          "indexed": true,
          "name": "beneficiary",
          "type": "address"
        },
        {
          "indexed": false,
          "name": "value",
          "type": "uint256"
        },
        {
          "indexed": false,
          "name": "amount",
          "type": "uint256"
        }
      ],
      "name": "TokenPurchase",
      "type": "event"
    },
    {
      "constant": true,
      "inputs": [],
      "name": "getPhase",
      "outputs": [
        {
          "name": "",
          "type": "uint256"
        }
      ],
      "payable": false,
      "stateMutability": "view",
      "type": "function"
    },
    {
      "constant": true,
      "inputs": [
        {
          "name": "_phase",
          "type": "uint8"
        }
      ],
      "name": "getPhaseRate",
      "outputs": [
        {
          "name": "",
          "type": "uint256"
        }
      ],
      "payable": false,
      "stateMutability": "view",
      "type": "function"
    },
    {
      "constant": true,
      "inputs": [
        {
          "name": "_phase",
          "type": "uint8"
        }
      ],
      "name": "getPhaseCap",
      "outputs": [
        {
          "name": "",
          "type": "uint256"
        }
      ],
      "payable": false,
      "stateMutability": "view",
      "type": "function"
    }
  ],
  "bytecode": "0x60606040526000600a5534156200001557600080fd5b60405160e08062001c978339810160405280805190602001909190805190602001909190805190602001909190805190602001909190805190602001909190805190602001909190805190602001909190505086868686611d4c8787876a422ca8b0a00a42500000006a21165458500521280000006a18d0bf423c03d8de000000010183838887898d600083111515620000ae57600080fd5b600073ffffffffffffffffffffffffffffffffffffffff168273ffffffffffffffffffffffffffffffffffffffff1614151515620000eb57600080fd5b600073ffffffffffffffffffffffffffffffffffffffff168173ffffffffffffffffffffffffffffffffffffffff16141515156200012857600080fd5b8260028190555081600160006101000a81548173ffffffffffffffffffffffffffffffffffffffff021916908373ffffffffffffffffffffffffffffffffffffffff160217905550806000806101000a81548173ffffffffffffffffffffffffffffffffffffffff021916908373ffffffffffffffffffffffffffffffffffffffff160217905550505050600073ffffffffffffffffffffffffffffffffffffffff168173ffffffffffffffffffffffffffffffffffffffff1614151515620001f057600080fd5b80600460006101000a81548173ffffffffffffffffffffffffffffffffffffffff021916908373ffffffffffffffffffffffffffffffffffffffff160217905550504282101515156200024257600080fd5b8181101515156200025257600080fd5b8160058190555080600681905550505033600860006101000a81548173ffffffffffffffffffffffffffffffffffffffff021916908373ffffffffffffffffffffffffffffffffffffffff16021790555060008873ffffffffffffffffffffffffffffffffffffffff1614151515620002ca57600080fd5b8142101515620002d957600080fd5b600081111515620002e957600080fd5b6283d600420182101515620002fd57600080fd5b87600960006101000a81548173ffffffffffffffffffffffffffffffffffffffff021916908373ffffffffffffffffffffffffffffffffffffffff16021790555081600b8190555080600c819055506200036a62000380640100000000026200148d176401000000009004565b50505050505050505050505050505050620005b8565b6200039e620005476401000000000262001638176401000000009004565b600d8054806001018281620003b4919062000549565b91600052602060002090600302016000606060405190810160405280611d4c81526020016a18d0bf423c03d8de00000081526020016a18d0bf423c03d8de0000008152509091909150600082015181600001556020820151816001015560408201518160020155505050600d805480600101828162000434919062000549565b91600052602060002090600302016000606060405190810160405280611af481526020016a211654585005212800000081526020016a21165458500521280000006a18d0bf423c03d8de000000018152509091909150600082015181600001556020820151816001015560408201518160020155505050600d8054806001018281620004c1919062000549565b9160005260206000209060030201600060606040519081016040528061189c81526020016a422ca8b0a00a425000000081526020016a422ca8b0a00a42500000006a21165458500521280000006a18d0bf423c03d8de00000001018152509091909150600082015181600001556020820151816001015560408201518160020155505050565b565b81548183558181151162000579576003028160030283600052602060002091820191016200057891906200057e565b5b505050565b620005b591905b80821115620005b157600080820160009055600182016000905560028201600090555060030162000585565b5090565b90565b6116cf80620005c86000396000f30060606040526004361061018b576000357c0100000000000000000000000000000000000000000000000000000000900463ffffffff1680631515bc2b146101965780631fdc35bb146101c357806327e235e3146101ec5780632c4e722e146102395780632e37eef614610262578063311277c1146102a75780633922a261146102d05780634042b66f1461030a57806345fe5a83146103335780634b6753bc1461035c5780634b98cd8d14610385578063518ab2a8146103ae578063521eb273146103d75780638d8f2adb1461042c5780638da5cb5b1461044157806393e59dc114610496578063a4d66daf146104eb578063aae5c3b814610514578063b20c0e431461054e578063b7a8807c14610577578063b8782d49146105a0578063bae3262f146105c9578063bf583903146105f2578063bff99c6c1461061b578063da3a2bda14610670578063e6303ce214610699578063ec3b6698146106c2578063ec8ac4d8146106eb578063eced028014610719578063f2fde38b14610742578063fc0c546a1461077b575b610194336107d0565b005b34156101a157600080fd5b6101a961089e565b604051808215151515815260200191505060405180910390f35b34156101ce57600080fd5b6101d66108aa565b6040518082815260200191505060405180910390f35b34156101f757600080fd5b610223600480803573ffffffffffffffffffffffffffffffffffffffff169060200190919050506108c6565b6040518082815260200191505060405180910390f35b341561024457600080fd5b61024c6108de565b6040518082815260200191505060405180910390f35b341561026d57600080fd5b61028360048080359060200190919050506108e4565b60405180848152602001838152602001828152602001935050505060405180910390f35b34156102b257600080fd5b6102ba61091d565b6040518082815260200191505060405180910390f35b34156102db57600080fd5b6102f4600480803560ff16906020019091905050610923565b6040518082815260200191505060405180910390f35b341561031557600080fd5b61031d610969565b6040518082815260200191505060405180910390f35b341561033e57600080fd5b61034661096f565b6040518082815260200191505060405180910390f35b341561036757600080fd5b61036f610975565b6040518082815260200191505060405180910390f35b341561039057600080fd5b61039861097b565b6040518082815260200191505060405180910390f35b34156103b957600080fd5b6103c161098a565b6040518082815260200191505060405180910390f35b34156103e257600080fd5b6103ea610990565b604051808273ffffffffffffffffffffffffffffffffffffffff1673ffffffffffffffffffffffffffffffffffffffff16815260200191505060405180910390f35b341561043757600080fd5b61043f6109b6565b005b341561044c57600080fd5b6104546109d1565b604051808273ffffffffffffffffffffffffffffffffffffffff1673ffffffffffffffffffffffffffffffffffffffff16815260200191505060405180910390f35b34156104a157600080fd5b6104a96109f7565b604051808273ffffffffffffffffffffffffffffffffffffffff1673ffffffffffffffffffffffffffffffffffffffff16815260200191505060405180910390f35b34156104f657600080fd5b6104fe610a1d565b6040518082815260200191505060405180910390f35b341561051f57600080fd5b610538600480803560ff16906020019091905050610a23565b6040518082815260200191505060405180910390f35b341561055957600080fd5b610561610a69565b6040518082815260200191505060405180910390f35b341561058257600080fd5b61058a610a6f565b6040518082815260200191505060405180910390f35b34156105ab57600080fd5b6105b3610a75565b6040518082815260200191505060405180910390f35b34156105d457600080fd5b6105dc610a7b565b6040518082815260200191505060405180910390f35b34156105fd57600080fd5b610605610a8a565b6040518082815260200191505060405180910390f35b341561062657600080fd5b61062e610bb9565b604051808273ffffffffffffffffffffffffffffffffffffffff1673ffffffffffffffffffffffffffffffffffffffff16815260200191505060405180910390f35b341561067b57600080fd5b610683610bdf565b6040518082815260200191505060405180910390f35b34156106a457600080fd5b6106ac610bee565b6040518082815260200191505060405180910390f35b34156106cd57600080fd5b6106d5610bfd565b6040518082815260200191505060405180910390f35b610717600480803573ffffffffffffffffffffffffffffffffffffffff169060200190919050506107d0565b005b341561072457600080fd5b61072c610c26565b6040518082815260200191505060405180910390f35b341561074d57600080fd5b610779600480803573ffffffffffffffffffffffffffffffffffffffff16906020019091905050610c40565b005b341561078657600080fd5b61078e610d98565b604051808273ffffffffffffffffffffffffffffffffffffffff1673ffffffffffffffffffffffffffffffffffffffff16815260200191505060405180910390f35b6000803491506107e08383610dbd565b6107e982610eab565b905061080082600354610ecd90919063ffffffff16565b6003819055506108108382610eeb565b8273ffffffffffffffffffffffffffffffffffffffff163373ffffffffffffffffffffffffffffffffffffffff167f623b3804fa71d67900d064613da8f94b9617215ee90799290593e1745087ad188484604051808381526020018281526020019250505060405180910390a36108878383610f27565b61088f610f2b565b6108998383610f8f565b505050565b60006006544211905090565b6a21165458500521280000006a18d0bf423c03d8de0000000181565b60076020528060005260406000206000915090505481565b60025481565b600d818154811015156108f357fe5b90600052602060002090600302016000915090508060000154908060010154908060020154905083565b61189c81565b600080600d83600281111561093457fe5b81548110151561094057fe5b906000526020600020906003020160000154905060008111151561096057fe5b80915050919050565b60035481565b600b5481565b60065481565b6a211654585005212800000081565b600a5481565b600160009054906101000a900473ffffffffffffffffffffffffffffffffffffffff1681565b600b5442101515156109c757600080fd5b6109cf610f93565b565b600860009054906101000a900473ffffffffffffffffffffffffffffffffffffffff1681565b600960009054906101000a900473ffffffffffffffffffffffffffffffffffffffff1681565b600c5481565b600080600d836002811115610a3457fe5b815481101515610a4057fe5b9060005260206000209060030201600101549050600081111515610a6057fe5b80915050919050565b611d4c81565b60055481565b611af481565b6a18d0bf423c03d8de00000081565b60008060009054906101000a900473ffffffffffffffffffffffffffffffffffffffff1673ffffffffffffffffffffffffffffffffffffffff1663dd62ed3e600460009054906101000a900473ffffffffffffffffffffffffffffffffffffffff16306040518363ffffffff167c0100000000000000000000000000000000000000000000000000000000028152600401808373ffffffffffffffffffffffffffffffffffffffff1673ffffffffffffffffffffffffffffffffffffffff1681526020018273ffffffffffffffffffffffffffffffffffffffff1673ffffffffffffffffffffffffffffffffffffffff16815260200192505050602060405180830381600087803b1515610b9d57600080fd5b5af11515610baa57600080fd5b50505060405180519050905090565b600460009054906101000a900473ffffffffffffffffffffffffffffffffffffffff1681565b6a422ca8b0a00a425000000081565b6a18d0bf423c03d8de00000081565b6a422ca8b0a00a42500000006a21165458500521280000006a18d0bf423c03d8de000000010181565b6000610c3061104b565b6002811115610c3b57fe5b905090565b600860009054906101000a900473ffffffffffffffffffffffffffffffffffffffff1673ffffffffffffffffffffffffffffffffffffffff163373ffffffffffffffffffffffffffffffffffffffff16141515610c9c57600080fd5b600073ffffffffffffffffffffffffffffffffffffffff168173ffffffffffffffffffffffffffffffffffffffff1614151515610cd857600080fd5b8073ffffffffffffffffffffffffffffffffffffffff16600860009054906101000a900473ffffffffffffffffffffffffffffffffffffffff1673ffffffffffffffffffffffffffffffffffffffff167f8be0079c531659141344cd1fd0a4f28419497f9722a3daafe3b4186f6b6457e060405160405180910390a380600860006101000a81548173ffffffffffffffffffffffffffffffffffffffff021916908373ffffffffffffffffffffffffffffffffffffffff16021790555050565b6000809054906101000a900473ffffffffffffffffffffffffffffffffffffffff1681565b81600960009054906101000a900473ffffffffffffffffffffffffffffffffffffffff1673ffffffffffffffffffffffffffffffffffffffff16633af32abf826040518263ffffffff167c0100000000000000000000000000000000000000000000000000000000028152600401808273ffffffffffffffffffffffffffffffffffffffff1673ffffffffffffffffffffffffffffffffffffffff168152602001915050602060405180830381600087803b1515610e7a57600080fd5b5af11515610e8757600080fd5b505050604051805190501515610e9c57600080fd5b610ea683836110a6565b505050565b600080610eb661104b565b9050610ec58184600a546110d3565b915050919050565b6000808284019050838110151515610ee157fe5b8091505092915050565b610f0081600a54610ecd90919063ffffffff16565b600a81905550600a54600c5410151515610f1957600080fd5b610f2382826111ba565b5050565b5050565b600160009054906101000a900473ffffffffffffffffffffffffffffffffffffffff1673ffffffffffffffffffffffffffffffffffffffff166108fc349081150290604051600060405180830381858888f193505050501515610f8d57600080fd5b565b5050565b6000610f9d61089e565b1515610fa857600080fd5b600760003373ffffffffffffffffffffffffffffffffffffffff1673ffffffffffffffffffffffffffffffffffffffff168152602001908152602001600020549050600081111515610ff957600080fd5b6000600760003373ffffffffffffffffffffffffffffffffffffffff1673ffffffffffffffffffffffffffffffffffffffff168152602001908152602001600020819055506110483382611253565b50565b60006110576000611388565b600a5411151561106a57600090506110a3565b6110746001611388565b600a5411151561108757600190506110a3565b6110916002611388565b600a541115151561109e57fe5b600290505b90565b60055442101580156110ba57506006544211155b15156110c557600080fd5b6110cf82826113ce565b5050565b6000806000806110e287610923565b92506110f7868461141e90919063ffffffff16565b935061110287611388565b6111158587610ecd90919063ffffffff16565b11156111ad576111368561112889611388565b61145990919063ffffffff16565b9150600187600281111561114657fe5b01600281111561115257fe5b90506111958161117d61116e868661147290919063ffffffff16565b8961145990919063ffffffff16565b6111908589610ecd90919063ffffffff16565b6110d3565b93506111aa8285610ecd90919063ffffffff16565b93505b8393505050509392505050565b61120c81600760008573ffffffffffffffffffffffffffffffffffffffff1673ffffffffffffffffffffffffffffffffffffffff16815260200190815260200160002054610ecd90919063ffffffff16565b600760008473ffffffffffffffffffffffffffffffffffffffff1673ffffffffffffffffffffffffffffffffffffffff168152602001908152602001600020819055505050565b6000809054906101000a900473ffffffffffffffffffffffffffffffffffffffff1673ffffffffffffffffffffffffffffffffffffffff166323b872dd600460009054906101000a900473ffffffffffffffffffffffffffffffffffffffff1684846040518463ffffffff167c0100000000000000000000000000000000000000000000000000000000028152600401808473ffffffffffffffffffffffffffffffffffffffff1673ffffffffffffffffffffffffffffffffffffffff1681526020018373ffffffffffffffffffffffffffffffffffffffff1673ffffffffffffffffffffffffffffffffffffffff1681526020018281526020019350505050602060405180830381600087803b151561136c57600080fd5b5af1151561137957600080fd5b50505060405180519050505050565b600080600d83600281111561139957fe5b8154811015156113a557fe5b90600052602060002090600302016002015490506000811115156113c557fe5b80915050919050565b600073ffffffffffffffffffffffffffffffffffffffff168273ffffffffffffffffffffffffffffffffffffffff161415151561140a57600080fd5b6000811415151561141a57600080fd5b5050565b60008060008414156114335760009150611452565b828402905082848281151561144457fe5b0414151561144e57fe5b8091505b5092915050565b600082821115151561146757fe5b818303905092915050565b600080828481151561148057fe5b0490508091505092915050565b611495611638565b600d80548060010182816114a9919061163a565b91600052602060002090600302016000606060405190810160405280611d4c81526020016a18d0bf423c03d8de00000081526020016a18d0bf423c03d8de0000008152509091909150600082015181600001556020820151816001015560408201518160020155505050600d8054806001018281611527919061163a565b91600052602060002090600302016000606060405190810160405280611af481526020016a211654585005212800000081526020016a21165458500521280000006a18d0bf423c03d8de000000018152509091909150600082015181600001556020820151816001015560408201518160020155505050600d80548060010182816115b2919061163a565b9160005260206000209060030201600060606040519081016040528061189c81526020016a422ca8b0a00a425000000081526020016a422ca8b0a00a42500000006a21165458500521280000006a18d0bf423c03d8de00000001018152509091909150600082015181600001556020820151816001015560408201518160020155505050565b565b81548183558181151161166757600302816003028360005260206000209182019101611666919061166c565b5b505050565b6116a091905b8082111561169c576000808201600090556001820160009055600282016000905550600301611672565b5090565b905600a165627a7a7230582025004b6c36230a6262bc4b0b1779e7dfd4395d9d69b7df218db424d961794e990029",
  "source": "pragma solidity ^ 0.4.18;\n\nimport \"./BaseCrowdsale.sol\";\n\n\n/**\n * @title PresaleCrowdsale\n * @dev PresaleCrowdsale is a contract for managing a token presale\n *\n * Based on references from OpenZeppelin: https://github.com/OpenZeppelin/zeppelin-solidity\n */\ncontract PresaleCrowdsale is BaseCrowdsale {\n    uint public constant PHASE1_RATE = 7500;\n    uint public constant PHASE2_RATE = 6900;\n    uint public constant PHASE3_RATE = 6300;\n\n    uint public constant PHASE1_CAP = 30000000 * (10**18);\n    uint public constant PHASE2_CAP = 40000000 * (10**18);\n    uint public constant PHASE3_CAP = 80000000 * (10**18);\n\n    uint public constant PHASE1_LIMIT = PHASE1_CAP;\n    uint public constant PHASE2_LIMIT = PHASE1_CAP + PHASE2_CAP;\n    uint public constant PHASE3_LIMIT = PHASE1_CAP + PHASE2_CAP + PHASE3_CAP;\n\n    enum PhaseId {Phase1, Phase2, Phase3}\n\n    struct Phase {\n        uint rate;\n        uint cap;\n        uint limit;\n    }\n\n    Phase[] public phases;\n\n    /**\n    * @dev Constructor\n    * @param _token Address of the token being sold\n    * @param _whitelist the whitelisted users data provider\n    * @param _tokenWallet Address holding the tokens, which has approved allowance to the crowdsale\n    * @param _openingTime Crowdsale opening time\n    * @param _closingTime Crowdsale closing time\n    * @param _wallet Address where collected funds will be forwarded to\n    */\n    function PresaleCrowdsale(\n        ERC20 _token,\n        address _whitelist,\n        address _tokenWallet,\n        address _wallet,\n        uint _openingTime,\n        uint _closingTime,\n        uint _deliveryTime)\n    public\n        BaseCrowdsale(\n            _token,\n            _whitelist,\n            _tokenWallet,\n            _wallet,\n            PHASE1_RATE,\n            _openingTime,\n            _closingTime,\n            _deliveryTime,\n            PHASE3_LIMIT)\n    {\n    }\n\n    /**\n    * @dev Returns id of the current phase\n    */\n    function getPhase()\n    public\n    view\n    returns (uint)\n    {\n        return uint(_getPhase());\n    }\n\n    /**\n    * @dev Returns the rate of tokens per wei at the present time.\n    * @return The number of tokens a buyer gets per wei at a given time\n    */\n    function getPhaseRate(PhaseId _phase)\n    public\n    view\n    returns (uint)\n    {\n        uint rate = phases[uint(_phase)].rate;\n        assert(rate > 0);\n        return rate;\n    }\n\n    /**\n    * @dev Returns cap of the given phase\n    */\n    function getPhaseCap(PhaseId _phase)\n    public\n    view\n    returns (uint)\n    {\n        uint cap = phases[uint(_phase)].cap;\n        assert(cap > 0);\n        return cap;\n    }\n\n    /**\n    * @dev Can be overridden to add initialization logic. The overriding function\n    * should call super._init() to ensure the chain of initialization is\n    * executed entirely.\n    */\n    function _init()\n    internal\n    {\n        super._init();\n\n        phases.push(Phase(PHASE1_RATE, PHASE1_CAP, PHASE1_LIMIT));\n        phases.push(Phase(PHASE2_RATE, PHASE2_CAP, PHASE2_LIMIT));\n        phases.push(Phase(PHASE3_RATE, PHASE3_CAP, PHASE3_LIMIT));\n    }\n\n    /**\n    * @dev Returns phase at the present time.\n    */\n    function _getPhase()\n    internal\n    view\n    returns (PhaseId)\n    {\n        if (tokensSold <= _getPhaseUpperLimit(PhaseId.Phase1)) {\n            return PhaseId.Phase1;\n        } else if (tokensSold <= _getPhaseUpperLimit(PhaseId.Phase2)) {\n            return PhaseId.Phase2;\n        } else {\n            assert(tokensSold <= _getPhaseUpperLimit(PhaseId.Phase3));\n            return PhaseId.Phase3;\n        }\n    }\n\n    /**\n    * @dev Returns amount of sold tokens when the given phase is ended.\n    */\n    function _getPhaseUpperLimit(PhaseId _phase)\n    internal\n    view\n    returns (uint)\n    {\n        uint limit = phases[uint(_phase)].limit;\n        assert(limit > 0);\n        return limit;\n    }\n\n    /**\n    * @dev Overrides parent method taking into account variable rate.\n    * @param _weiAmount The value in wei to be converted into tokens\n    * @return The number of tokens _weiAmount wei will buy at present time\n    */\n    function _getTokenAmount(uint _weiAmount)\n    internal\n    view\n    returns (uint)\n    {\n        PhaseId currentPhase = _getPhase();\n        return _calcTokenAmount(currentPhase, _weiAmount, tokensSold);\n    }\n\n    /**\n    * @dev Calculates amount of tokens which can purchased\n    * @param _phase the phase of presale\n    * @param _weiAmount the value in wei to be converted into tokens\n    * @param _tokensSold the amount of sold tokens\n    * @return The number of tokens _weiAmount wei will buy at present time\n    */\n    function _calcTokenAmount(PhaseId _phase, uint _weiAmount, uint _tokensSold)\n    private\n    view\n    returns (uint tokensBought)\n    {\n        uint rate = getPhaseRate(_phase);\n\n        tokensBought = rate.mul(_weiAmount);\n\n        if (_tokensSold.add(tokensBought) > _getPhaseUpperLimit(_phase)) {\n            uint tokens = _getPhaseUpperLimit(_phase).sub(_tokensSold);\n\n            PhaseId nextPhase = PhaseId(uint(_phase) + 1);\n            tokensBought = _calcTokenAmount(nextPhase, _weiAmount.sub(tokens.div(rate)), _tokensSold.add(tokens));\n\n            tokensBought = tokensBought.add(tokens);\n        }\n\n        return tokensBought;\n    }\n}\n",
  "sourcePath": "/media/jeroen/temp/vu.token/contracts/crowdsale/PresaleCrowdsale.sol",
  "compiler": {
    "name": "solc",
    "version": "0.4.21+commit.dfe3193c.Emscripten.clang"
  },
  "schemaVersion": "2.0.0",
  "updatedAt": "2018-04-05T21:36:49.907Z"
}