{
  "contractName": "PresaleCrowdsaleTestable",
  "abi": [
    {
      "constant": true,
      "inputs": [],
      "name": "hasClosed",
      "outputs": [
        {
          "name": "",
          "type": "bool"
        }
      ],
      "payable": false,
      "stateMutability": "view",
      "type": "function"
    },
    {
      "constant": true,
      "inputs": [],
      "name": "PHASE2_LIMIT",
      "outputs": [
        {
          "name": "",
          "type": "uint256"
        }
      ],
      "payable": false,
      "stateMutability": "view",
      "type": "function"
    },
    {
      "constant": true,
      "inputs": [
        {
          "name": "",
          "type": "address"
        }
      ],
      "name": "balances",
      "outputs": [
        {
          "name": "",
          "type": "uint256"
        }
      ],
      "payable": false,
      "stateMutability": "view",
      "type": "function"
    },
    {
      "constant": true,
      "inputs": [],
      "name": "rate",
      "outputs": [
        {
          "name": "",
          "type": "uint256"
        }
      ],
      "payable": false,
      "stateMutability": "view",
      "type": "function"
    },
    {
      "constant": true,
      "inputs": [
        {
          "name": "",
          "type": "uint256"
        }
      ],
      "name": "phases",
      "outputs": [
        {
          "name": "rate",
          "type": "uint256"
        },
        {
          "name": "cap",
          "type": "uint256"
        },
        {
          "name": "limit",
          "type": "uint256"
        }
      ],
      "payable": false,
      "stateMutability": "view",
      "type": "function"
    },
    {
      "constant": true,
      "inputs": [],
      "name": "PHASE3_RATE",
      "outputs": [
        {
          "name": "",
          "type": "uint256"
        }
      ],
      "payable": false,
      "stateMutability": "view",
      "type": "function"
    },
    {
      "constant": true,
      "inputs": [
        {
          "name": "_phase",
          "type": "uint8"
        }
      ],
      "name": "getPhaseRate",
      "outputs": [
        {
          "name": "",
          "type": "uint256"
        }
      ],
      "payable": false,
      "stateMutability": "view",
      "type": "function"
    },
    {
      "constant": true,
      "inputs": [],
      "name": "weiRaised",
      "outputs": [
        {
          "name": "",
          "type": "uint256"
        }
      ],
      "payable": false,
      "stateMutability": "view",
      "type": "function"
    },
    {
      "constant": true,
      "inputs": [],
      "name": "deliveryTime",
      "outputs": [
        {
          "name": "",
          "type": "uint256"
        }
      ],
      "payable": false,
      "stateMutability": "view",
      "type": "function"
    },
    {
      "constant": true,
      "inputs": [],
      "name": "closingTime",
      "outputs": [
        {
          "name": "",
          "type": "uint256"
        }
      ],
      "payable": false,
      "stateMutability": "view",
      "type": "function"
    },
    {
      "constant": true,
      "inputs": [],
      "name": "PHASE2_CAP",
      "outputs": [
        {
          "name": "",
          "type": "uint256"
        }
      ],
      "payable": false,
      "stateMutability": "view",
      "type": "function"
    },
    {
      "constant": true,
      "inputs": [],
      "name": "tokensSold",
      "outputs": [
        {
          "name": "",
          "type": "uint256"
        }
      ],
      "payable": false,
      "stateMutability": "view",
      "type": "function"
    },
    {
      "constant": true,
      "inputs": [],
      "name": "wallet",
      "outputs": [
        {
          "name": "",
          "type": "address"
        }
      ],
      "payable": false,
      "stateMutability": "view",
      "type": "function"
    },
    {
      "constant": false,
      "inputs": [],
      "name": "withdrawTokens",
      "outputs": [],
      "payable": false,
      "stateMutability": "nonpayable",
      "type": "function"
    },
    {
      "constant": true,
      "inputs": [],
      "name": "owner",
      "outputs": [
        {
          "name": "",
          "type": "address"
        }
      ],
      "payable": false,
      "stateMutability": "view",
      "type": "function"
    },
    {
      "constant": true,
      "inputs": [],
      "name": "whitelist",
      "outputs": [
        {
          "name": "",
          "type": "address"
        }
      ],
      "payable": false,
      "stateMutability": "view",
      "type": "function"
    },
    {
      "constant": true,
      "inputs": [],
      "name": "limit",
      "outputs": [
        {
          "name": "",
          "type": "uint256"
        }
      ],
      "payable": false,
      "stateMutability": "view",
      "type": "function"
    },
    {
      "constant": true,
      "inputs": [
        {
          "name": "_phase",
          "type": "uint8"
        }
      ],
      "name": "getPhaseCap",
      "outputs": [
        {
          "name": "",
          "type": "uint256"
        }
      ],
      "payable": false,
      "stateMutability": "view",
      "type": "function"
    },
    {
      "constant": true,
      "inputs": [],
      "name": "PHASE1_RATE",
      "outputs": [
        {
          "name": "",
          "type": "uint256"
        }
      ],
      "payable": false,
      "stateMutability": "view",
      "type": "function"
    },
    {
      "constant": true,
      "inputs": [],
      "name": "openingTime",
      "outputs": [
        {
          "name": "",
          "type": "uint256"
        }
      ],
      "payable": false,
      "stateMutability": "view",
      "type": "function"
    },
    {
      "constant": true,
      "inputs": [],
      "name": "PHASE2_RATE",
      "outputs": [
        {
          "name": "",
          "type": "uint256"
        }
      ],
      "payable": false,
      "stateMutability": "view",
      "type": "function"
    },
    {
      "constant": true,
      "inputs": [],
      "name": "PHASE1_LIMIT",
      "outputs": [
        {
          "name": "",
          "type": "uint256"
        }
      ],
      "payable": false,
      "stateMutability": "view",
      "type": "function"
    },
    {
      "constant": true,
      "inputs": [],
      "name": "remainingTokens",
      "outputs": [
        {
          "name": "",
          "type": "uint256"
        }
      ],
      "payable": false,
      "stateMutability": "view",
      "type": "function"
    },
    {
      "constant": true,
      "inputs": [],
      "name": "tokenWallet",
      "outputs": [
        {
          "name": "",
          "type": "address"
        }
      ],
      "payable": false,
      "stateMutability": "view",
      "type": "function"
    },
    {
      "constant": true,
      "inputs": [],
      "name": "PHASE3_CAP",
      "outputs": [
        {
          "name": "",
          "type": "uint256"
        }
      ],
      "payable": false,
      "stateMutability": "view",
      "type": "function"
    },
    {
      "constant": true,
      "inputs": [],
      "name": "PHASE1_CAP",
      "outputs": [
        {
          "name": "",
          "type": "uint256"
        }
      ],
      "payable": false,
      "stateMutability": "view",
      "type": "function"
    },
    {
      "constant": true,
      "inputs": [],
      "name": "PHASE3_LIMIT",
      "outputs": [
        {
          "name": "",
          "type": "uint256"
        }
      ],
      "payable": false,
      "stateMutability": "view",
      "type": "function"
    },
    {
      "constant": false,
      "inputs": [
        {
          "name": "_beneficiary",
          "type": "address"
        }
      ],
      "name": "buyTokens",
      "outputs": [],
      "payable": true,
      "stateMutability": "payable",
      "type": "function"
    },
    {
      "constant": true,
      "inputs": [],
      "name": "getPhase",
      "outputs": [
        {
          "name": "",
          "type": "uint256"
        }
      ],
      "payable": false,
      "stateMutability": "view",
      "type": "function"
    },
    {
      "constant": false,
      "inputs": [
        {
          "name": "newOwner",
          "type": "address"
        }
      ],
      "name": "transferOwnership",
      "outputs": [],
      "payable": false,
      "stateMutability": "nonpayable",
      "type": "function"
    },
    {
      "constant": true,
      "inputs": [],
      "name": "token",
      "outputs": [
        {
          "name": "",
          "type": "address"
        }
      ],
      "payable": false,
      "stateMutability": "view",
      "type": "function"
    },
    {
      "inputs": [
        {
          "name": "_token",
          "type": "address"
        },
        {
          "name": "_whitelist",
          "type": "address"
        },
        {
          "name": "_tokenWallet",
          "type": "address"
        },
        {
          "name": "_wallet",
          "type": "address"
        },
        {
          "name": "_deliveryTime",
          "type": "uint256"
        }
      ],
      "payable": false,
      "stateMutability": "nonpayable",
      "type": "constructor"
    },
    {
      "payable": true,
      "stateMutability": "payable",
      "type": "fallback"
    },
    {
      "anonymous": false,
      "inputs": [
        {
          "indexed": true,
          "name": "previousOwner",
          "type": "address"
        },
        {
          "indexed": true,
          "name": "newOwner",
          "type": "address"
        }
      ],
      "name": "OwnershipTransferred",
      "type": "event"
    },
    {
      "anonymous": false,
      "inputs": [
        {
          "indexed": true,
          "name": "purchaser",
          "type": "address"
        },
        {
          "indexed": true,
          "name": "beneficiary",
          "type": "address"
        },
        {
          "indexed": false,
          "name": "value",
          "type": "uint256"
        },
        {
          "indexed": false,
          "name": "amount",
          "type": "uint256"
        }
      ],
      "name": "TokenPurchase",
      "type": "event"
    }
  ],
  "bytecode": "0x60606040526000600a5534156200001557600080fd5b60405160a08062001c5d833981016040528080519060200190919080519060200190919080519060200190919080519060200190919080519060200190919050508484848442620d2f0042018686868686611d4c8787876a422ca8b0a00a42500000006a21165458500521280000006a18d0bf423c03d8de000000010183838887898d600083111515620000a857600080fd5b600073ffffffffffffffffffffffffffffffffffffffff168273ffffffffffffffffffffffffffffffffffffffff1614151515620000e557600080fd5b600073ffffffffffffffffffffffffffffffffffffffff168173ffffffffffffffffffffffffffffffffffffffff16141515156200012257600080fd5b8260028190555081600160006101000a81548173ffffffffffffffffffffffffffffffffffffffff021916908373ffffffffffffffffffffffffffffffffffffffff160217905550806000806101000a81548173ffffffffffffffffffffffffffffffffffffffff021916908373ffffffffffffffffffffffffffffffffffffffff160217905550505050600073ffffffffffffffffffffffffffffffffffffffff168173ffffffffffffffffffffffffffffffffffffffff1614151515620001ea57600080fd5b80600460006101000a81548173ffffffffffffffffffffffffffffffffffffffff021916908373ffffffffffffffffffffffffffffffffffffffff160217905550504282101515156200023c57600080fd5b8181101515156200024c57600080fd5b8160058190555080600681905550505033600860006101000a81548173ffffffffffffffffffffffffffffffffffffffff021916908373ffffffffffffffffffffffffffffffffffffffff16021790555060008873ffffffffffffffffffffffffffffffffffffffff1614151515620002c457600080fd5b8142101515620002d357600080fd5b600081111515620002e357600080fd5b6283d600420182101515620002f757600080fd5b87600960006101000a81548173ffffffffffffffffffffffffffffffffffffffff021916908373ffffffffffffffffffffffffffffffffffffffff16021790555081600b8190555080600c81905550620003646200037f64010000000002620014a2176401000000009004565b50505050505050505050505050505050505050505062000585565b600d805480600101828162000395919062000516565b91600052602060002090600302016000606060405190810160405280611d4c8152602001681043561a88293000008152602001681043561a88293000008152509091909150600082015181600001556020820151816001015560408201518160020155505050600d805480600101828162000411919062000516565b91600052602060002090600302016000606060405190810160405280611af481526020016815b1e403a64754000081526020016815b1e403a647540000681043561a8829300000018152509091909150600082015181600001556020820151816001015560408201518160020155505050600d805480600101828162000498919062000516565b9160005260206000209060030201600060606040519081016040528061189c8152602001682b5f9e36e3760a00008152602001682b5f9e36e3760a00006815b1e403a647540000681043561a882930000001018152509091909150600082015181600001556020820151816001015560408201518160020155505050565b81548183558181151162000546576003028160030283600052602060002091820191016200054591906200054b565b5b505050565b6200058291905b808211156200057e57600080820160009055600182016000905560028201600090555060030162000552565b5090565b90565b6116c880620005956000396000f30060606040526004361061018b576000357c0100000000000000000000000000000000000000000000000000000000900463ffffffff1680631515bc2b146101965780631fdc35bb146101c357806327e235e3146101ec5780632c4e722e146102395780632e37eef614610262578063311277c1146102a75780633922a261146102d05780634042b66f1461030a57806345fe5a83146103335780634b6753bc1461035c5780634b98cd8d14610385578063518ab2a8146103ae578063521eb273146103d75780638d8f2adb1461042c5780638da5cb5b1461044157806393e59dc114610496578063a4d66daf146104eb578063aae5c3b814610514578063b20c0e431461054e578063b7a8807c14610577578063b8782d49146105a0578063bae3262f146105c9578063bf583903146105f2578063bff99c6c1461061b578063da3a2bda14610670578063e6303ce214610699578063ec3b6698146106c2578063ec8ac4d8146106eb578063eced028014610719578063f2fde38b14610742578063fc0c546a1461077b575b610194336107d0565b005b34156101a157600080fd5b6101a961089e565b604051808215151515815260200191505060405180910390f35b34156101ce57600080fd5b6101d66108aa565b6040518082815260200191505060405180910390f35b34156101f757600080fd5b610223600480803573ffffffffffffffffffffffffffffffffffffffff169060200190919050506108c2565b6040518082815260200191505060405180910390f35b341561024457600080fd5b61024c6108da565b6040518082815260200191505060405180910390f35b341561026d57600080fd5b61028360048080359060200190919050506108e0565b60405180848152602001838152602001828152602001935050505060405180910390f35b34156102b257600080fd5b6102ba610919565b6040518082815260200191505060405180910390f35b34156102db57600080fd5b6102f4600480803560ff1690602001909190505061091f565b6040518082815260200191505060405180910390f35b341561031557600080fd5b61031d610965565b6040518082815260200191505060405180910390f35b341561033e57600080fd5b61034661096b565b6040518082815260200191505060405180910390f35b341561036757600080fd5b61036f610971565b6040518082815260200191505060405180910390f35b341561039057600080fd5b610398610977565b6040518082815260200191505060405180910390f35b34156103b957600080fd5b6103c1610984565b6040518082815260200191505060405180910390f35b34156103e257600080fd5b6103ea61098a565b604051808273ffffffffffffffffffffffffffffffffffffffff1673ffffffffffffffffffffffffffffffffffffffff16815260200191505060405180910390f35b341561043757600080fd5b61043f6109b0565b005b341561044c57600080fd5b6104546109cb565b604051808273ffffffffffffffffffffffffffffffffffffffff1673ffffffffffffffffffffffffffffffffffffffff16815260200191505060405180910390f35b34156104a157600080fd5b6104a96109f1565b604051808273ffffffffffffffffffffffffffffffffffffffff1673ffffffffffffffffffffffffffffffffffffffff16815260200191505060405180910390f35b34156104f657600080fd5b6104fe610a17565b6040518082815260200191505060405180910390f35b341561051f57600080fd5b610538600480803560ff16906020019091905050610a1d565b6040518082815260200191505060405180910390f35b341561055957600080fd5b610561610a63565b6040518082815260200191505060405180910390f35b341561058257600080fd5b61058a610a69565b6040518082815260200191505060405180910390f35b34156105ab57600080fd5b6105b3610a6f565b6040518082815260200191505060405180910390f35b34156105d457600080fd5b6105dc610a75565b6040518082815260200191505060405180910390f35b34156105fd57600080fd5b610605610a82565b6040518082815260200191505060405180910390f35b341561062657600080fd5b61062e610bbe565b604051808273ffffffffffffffffffffffffffffffffffffffff1673ffffffffffffffffffffffffffffffffffffffff16815260200191505060405180910390f35b341561067b57600080fd5b610683610be4565b6040518082815260200191505060405180910390f35b34156106a457600080fd5b6106ac610bf1565b6040518082815260200191505060405180910390f35b34156106cd57600080fd5b6106d5610bfe565b6040518082815260200191505060405180910390f35b610717600480803573ffffffffffffffffffffffffffffffffffffffff169060200190919050506107d0565b005b341561072457600080fd5b61072c610c21565b6040518082815260200191505060405180910390f35b341561074d57600080fd5b610779600480803573ffffffffffffffffffffffffffffffffffffffff16906020019091905050610c3b565b005b341561078657600080fd5b61078e610d93565b604051808273ffffffffffffffffffffffffffffffffffffffff1673ffffffffffffffffffffffffffffffffffffffff16815260200191505060405180910390f35b6000803491506107e08383610db8565b6107e982610eb3565b905061080082600354610ed590919063ffffffff16565b6003819055506108108382610ef3565b8273ffffffffffffffffffffffffffffffffffffffff163373ffffffffffffffffffffffffffffffffffffffff167f623b3804fa71d67900d064613da8f94b9617215ee90799290593e1745087ad188484604051808381526020018281526020019250505060405180910390a36108878383610f2f565b61088f610f33565b6108998383610f97565b505050565b60006006544211905090565b6815b1e403a647540000681043561a88293000000181565b60076020528060005260406000206000915090505481565b60025481565b600d818154811015156108ef57fe5b90600052602060002090600302016000915090508060000154908060010154908060020154905083565b61189c81565b600080600d83600281111561093057fe5b81548110151561093c57fe5b906000526020600020906003020160000154905060008111151561095c57fe5b80915050919050565b60035481565b600b5481565b60065481565b6815b1e403a64754000081565b600a5481565b600160009054906101000a900473ffffffffffffffffffffffffffffffffffffffff1681565b600b5442101515156109c157600080fd5b6109c9610f9b565b565b600860009054906101000a900473ffffffffffffffffffffffffffffffffffffffff1681565b600960009054906101000a900473ffffffffffffffffffffffffffffffffffffffff1681565b600c5481565b600080600d836002811115610a2e57fe5b815481101515610a3a57fe5b9060005260206000209060030201600101549050600081111515610a5a57fe5b80915050919050565b611d4c81565b60055481565b611af481565b681043561a882930000081565b60008060009054906101000a900473ffffffffffffffffffffffffffffffffffffffff1673ffffffffffffffffffffffffffffffffffffffff1663dd62ed3e600460009054906101000a900473ffffffffffffffffffffffffffffffffffffffff16306000604051602001526040518363ffffffff167c0100000000000000000000000000000000000000000000000000000000028152600401808373ffffffffffffffffffffffffffffffffffffffff1673ffffffffffffffffffffffffffffffffffffffff1681526020018273ffffffffffffffffffffffffffffffffffffffff1673ffffffffffffffffffffffffffffffffffffffff16815260200192505050602060405180830381600087803b1515610b9e57600080fd5b6102c65a03f11515610baf57600080fd5b50505060405180519050905090565b600460009054906101000a900473ffffffffffffffffffffffffffffffffffffffff1681565b682b5f9e36e3760a000081565b681043561a882930000081565b682b5f9e36e3760a00006815b1e403a647540000681043561a8829300000010181565b6000610c2b611053565b6002811115610c3657fe5b905090565b600860009054906101000a900473ffffffffffffffffffffffffffffffffffffffff1673ffffffffffffffffffffffffffffffffffffffff163373ffffffffffffffffffffffffffffffffffffffff16141515610c9757600080fd5b600073ffffffffffffffffffffffffffffffffffffffff168173ffffffffffffffffffffffffffffffffffffffff1614151515610cd357600080fd5b8073ffffffffffffffffffffffffffffffffffffffff16600860009054906101000a900473ffffffffffffffffffffffffffffffffffffffff1673ffffffffffffffffffffffffffffffffffffffff167f8be0079c531659141344cd1fd0a4f28419497f9722a3daafe3b4186f6b6457e060405160405180910390a380600860006101000a81548173ffffffffffffffffffffffffffffffffffffffff021916908373ffffffffffffffffffffffffffffffffffffffff16021790555050565b6000809054906101000a900473ffffffffffffffffffffffffffffffffffffffff1681565b81600960009054906101000a900473ffffffffffffffffffffffffffffffffffffffff1673ffffffffffffffffffffffffffffffffffffffff16633af32abf826000604051602001526040518263ffffffff167c0100000000000000000000000000000000000000000000000000000000028152600401808273ffffffffffffffffffffffffffffffffffffffff1673ffffffffffffffffffffffffffffffffffffffff168152602001915050602060405180830381600087803b1515610e7e57600080fd5b6102c65a03f11515610e8f57600080fd5b505050604051805190501515610ea457600080fd5b610eae83836110ae565b505050565b600080610ebe611053565b9050610ecd8184600a546110db565b915050919050565b6000808284019050838110151515610ee957fe5b8091505092915050565b610f0881600a54610ed590919063ffffffff16565b600a81905550600a54600c5410151515610f2157600080fd5b610f2b82826111c2565b5050565b5050565b600160009054906101000a900473ffffffffffffffffffffffffffffffffffffffff1673ffffffffffffffffffffffffffffffffffffffff166108fc349081150290604051600060405180830381858888f193505050501515610f9557600080fd5b565b5050565b6000610fa561089e565b1515610fb057600080fd5b600760003373ffffffffffffffffffffffffffffffffffffffff1673ffffffffffffffffffffffffffffffffffffffff16815260200190815260200160002054905060008111151561100157600080fd5b6000600760003373ffffffffffffffffffffffffffffffffffffffff1673ffffffffffffffffffffffffffffffffffffffff16815260200190815260200160002081905550611050338261125b565b50565b600061105f600061139d565b600a5411151561107257600090506110ab565b61107c600161139d565b600a5411151561108f57600190506110ab565b611099600261139d565b600a54111515156110a657fe5b600290505b90565b60055442101580156110c257506006544211155b15156110cd57600080fd5b6110d782826113e3565b5050565b6000806000806110ea8761091f565b92506110ff868461143390919063ffffffff16565b935061110a8761139d565b61111d8587610ed590919063ffffffff16565b11156111b55761113e856111308961139d565b61146e90919063ffffffff16565b9150600187600281111561114e57fe5b01600281111561115a57fe5b905061119d81611185611176868661148790919063ffffffff16565b8961146e90919063ffffffff16565b6111988589610ed590919063ffffffff16565b6110db565b93506111b28285610ed590919063ffffffff16565b93505b8393505050509392505050565b61121481600760008573ffffffffffffffffffffffffffffffffffffffff1673ffffffffffffffffffffffffffffffffffffffff16815260200190815260200160002054610ed590919063ffffffff16565b600760008473ffffffffffffffffffffffffffffffffffffffff1673ffffffffffffffffffffffffffffffffffffffff168152602001908152602001600020819055505050565b6000809054906101000a900473ffffffffffffffffffffffffffffffffffffffff1673ffffffffffffffffffffffffffffffffffffffff166323b872dd600460009054906101000a900473ffffffffffffffffffffffffffffffffffffffff1684846000604051602001526040518463ffffffff167c0100000000000000000000000000000000000000000000000000000000028152600401808473ffffffffffffffffffffffffffffffffffffffff1673ffffffffffffffffffffffffffffffffffffffff1681526020018373ffffffffffffffffffffffffffffffffffffffff1673ffffffffffffffffffffffffffffffffffffffff1681526020018281526020019350505050602060405180830381600087803b151561137d57600080fd5b6102c65a03f1151561138e57600080fd5b50505060405180519050505050565b600080600d8360028111156113ae57fe5b8154811015156113ba57fe5b90600052602060002090600302016002015490506000811115156113da57fe5b80915050919050565b600073ffffffffffffffffffffffffffffffffffffffff168273ffffffffffffffffffffffffffffffffffffffff161415151561141f57600080fd5b6000811415151561142f57600080fd5b5050565b60008060008414156114485760009150611467565b828402905082848281151561145957fe5b0414151561146357fe5b8091505b5092915050565b600082821115151561147c57fe5b818303905092915050565b600080828481151561149557fe5b0490508091505092915050565b600d80548060010182816114b69190611633565b91600052602060002090600302016000606060405190810160405280611d4c8152602001681043561a88293000008152602001681043561a88293000008152509091909150600082015181600001556020820151816001015560408201518160020155505050600d80548060010182816115309190611633565b91600052602060002090600302016000606060405190810160405280611af481526020016815b1e403a64754000081526020016815b1e403a647540000681043561a8829300000018152509091909150600082015181600001556020820151816001015560408201518160020155505050600d80548060010182816115b59190611633565b9160005260206000209060030201600060606040519081016040528061189c8152602001682b5f9e36e3760a00008152602001682b5f9e36e3760a00006815b1e403a647540000681043561a882930000001018152509091909150600082015181600001556020820151816001015560408201518160020155505050565b8154818355818115116116605760030281600302836000526020600020918201910161165f9190611665565b5b505050565b61169991905b8082111561169557600080820160009055600182016000905560028201600090555060030161166b565b5090565b905600a165627a7a7230582061a15ed4e1858742a145eb5335b136b7d659de5af289fbd1d3f3216b72180b500029",
  "source": "pragma solidity ^ 0.4.18;\n\nimport \"../crowdsale/PresaleCrowdsale.sol\";\n\n\n/**\n* @title PresaleCrowdsaleTestable\n* @dev Designed just for testing purposes\n*/\ncontract PresaleCrowdsaleTestable is PresaleCrowdsale {\n    uint public constant PHASE1_CAP = 300000 * (10**15);\n    uint public constant PHASE2_CAP = 400200 * (10**15);\n    uint public constant PHASE3_CAP = 800100 * (10**15);\n\n    uint public constant PHASE1_LIMIT = PHASE1_CAP;\n    uint public constant PHASE2_LIMIT = PHASE1_CAP + PHASE2_CAP;\n    uint public constant PHASE3_LIMIT = PHASE1_CAP + PHASE2_CAP + PHASE3_CAP;\n\n    function PresaleCrowdsaleTestable(\n        ERC20 _token,\n        address _whitelist,\n        address _tokenWallet,\n        address _wallet,\n        uint _deliveryTime)\n    public\n        PresaleCrowdsale(_token, _whitelist, _tokenWallet, _wallet, now, now + 10 days, _deliveryTime)\n    {\n    }\n\n    function _init() internal {\n        phases.push(Phase(PHASE1_RATE, PHASE1_CAP, PHASE1_LIMIT));\n        phases.push(Phase(PHASE2_RATE, PHASE2_CAP, PHASE2_LIMIT));\n        phases.push(Phase(PHASE3_RATE, PHASE3_CAP, PHASE3_LIMIT));\n    }\n}\n",
  "sourcePath": "/Users/ahiatsevich/Development/blockchain/immersive-entertainment-contracts/contracts/helpers/PresaleCrowdsaleTestable.sol",
  "compiler": {
    "name": "solc",
    "version": "0.4.19+commit.c4cbbb05.Emscripten.clang"
  },
  "schemaVersion": "2.0.0",
  "updatedAt": "2018-04-06T09:54:35.919Z"
}