{
  "contractName": "Whitelist",
  "abi": [
    {
      "constant": true,
      "inputs": [],
      "name": "owner",
      "outputs": [
        {
          "name": "",
          "type": "address"
        }
      ],
      "payable": false,
      "stateMutability": "view",
      "type": "function"
    },
    {
      "constant": true,
      "inputs": [
        {
          "name": "",
          "type": "address"
        }
      ],
      "name": "whitelist",
      "outputs": [
        {
          "name": "",
          "type": "bool"
        }
      ],
      "payable": false,
      "stateMutability": "view",
      "type": "function"
    },
    {
      "constant": true,
      "inputs": [
        {
          "name": "",
          "type": "address"
        }
      ],
      "name": "authorized",
      "outputs": [
        {
          "name": "",
          "type": "bool"
        }
      ],
      "payable": false,
      "stateMutability": "view",
      "type": "function"
    },
    {
      "constant": false,
      "inputs": [
        {
          "name": "newOwner",
          "type": "address"
        }
      ],
      "name": "transferOwnership",
      "outputs": [],
      "payable": false,
      "stateMutability": "nonpayable",
      "type": "function"
    },
    {
      "anonymous": false,
      "inputs": [
        {
          "indexed": false,
          "name": "user",
          "type": "address"
        }
      ],
      "name": "UserAllowed",
      "type": "event"
    },
    {
      "anonymous": false,
      "inputs": [
        {
          "indexed": false,
          "name": "user",
          "type": "address"
        }
      ],
      "name": "UserDisallowed",
      "type": "event"
    },
    {
      "anonymous": false,
      "inputs": [
        {
          "indexed": true,
          "name": "previousOwner",
          "type": "address"
        },
        {
          "indexed": true,
          "name": "newOwner",
          "type": "address"
        }
      ],
      "name": "OwnershipTransferred",
      "type": "event"
    },
    {
      "constant": false,
      "inputs": [
        {
          "name": "_admin",
          "type": "address"
        }
      ],
      "name": "authorize",
      "outputs": [],
      "payable": false,
      "stateMutability": "nonpayable",
      "type": "function"
    },
    {
      "constant": false,
      "inputs": [
        {
          "name": "_admin",
          "type": "address"
        }
      ],
      "name": "reject",
      "outputs": [],
      "payable": false,
      "stateMutability": "nonpayable",
      "type": "function"
    },
    {
      "constant": false,
      "inputs": [
        {
          "name": "_beneficiary",
          "type": "address"
        }
      ],
      "name": "addToWhitelist",
      "outputs": [],
      "payable": false,
      "stateMutability": "nonpayable",
      "type": "function"
    },
    {
      "constant": false,
      "inputs": [
        {
          "name": "_beneficiaries",
          "type": "address[]"
        }
      ],
      "name": "addManyToWhitelist",
      "outputs": [],
      "payable": false,
      "stateMutability": "nonpayable",
      "type": "function"
    },
    {
      "constant": false,
      "inputs": [
        {
          "name": "_beneficiary",
          "type": "address"
        }
      ],
      "name": "removeFromWhitelist",
      "outputs": [],
      "payable": false,
      "stateMutability": "nonpayable",
      "type": "function"
    },
    {
      "constant": true,
      "inputs": [
        {
          "name": "_beneficiary",
          "type": "address"
        }
      ],
      "name": "isWhitelisted",
      "outputs": [
        {
          "name": "",
          "type": "bool"
        }
      ],
      "payable": false,
      "stateMutability": "view",
      "type": "function"
    }
  ],
  "bytecode": "0x6060604052336000806101000a81548173ffffffffffffffffffffffffffffffffffffffff021916908373ffffffffffffffffffffffffffffffffffffffff160217905550610b9e806100536000396000f3006060604052600436106100a4576000357c0100000000000000000000000000000000000000000000000000000000900463ffffffff1680633af32abf146100a95780638ab1d681146100fa5780638c10671c146101335780638da5cb5b146101615780639b19251a146101b6578063ab0da5a914610207578063b6a5d7de14610240578063b918161114610279578063e43252d7146102ca578063f2fde38b14610303575b600080fd5b34156100b457600080fd5b6100e0600480803573ffffffffffffffffffffffffffffffffffffffff1690602001909190505061033c565b604051808215151515815260200191505060405180910390f35b341561010557600080fd5b610131600480803573ffffffffffffffffffffffffffffffffffffffff16906020019091905050610392565b005b341561013e57600080fd5b61015f600480803590602001908201803590602001919091929050506104ff565b005b341561016c57600080fd5b6101746106e0565b604051808273ffffffffffffffffffffffffffffffffffffffff1673ffffffffffffffffffffffffffffffffffffffff16815260200191505060405180910390f35b34156101c157600080fd5b6101ed600480803573ffffffffffffffffffffffffffffffffffffffff16906020019091905050610705565b604051808215151515815260200191505060405180910390f35b341561021257600080fd5b61023e600480803573ffffffffffffffffffffffffffffffffffffffff16906020019091905050610725565b005b341561024b57600080fd5b610277600480803573ffffffffffffffffffffffffffffffffffffffff169060200190919050506107db565b005b341561028457600080fd5b6102b0600480803573ffffffffffffffffffffffffffffffffffffffff16906020019091905050610891565b604051808215151515815260200191505060405180910390f35b34156102d557600080fd5b610301600480803573ffffffffffffffffffffffffffffffffffffffff169060200190919050506108b1565b005b341561030e57600080fd5b61033a600480803573ffffffffffffffffffffffffffffffffffffffff16906020019091905050610a1d565b005b6000600160008373ffffffffffffffffffffffffffffffffffffffff1673ffffffffffffffffffffffffffffffffffffffff16815260200190815260200160002060009054906101000a900460ff169050919050565b6000809054906101000a900473ffffffffffffffffffffffffffffffffffffffff1673ffffffffffffffffffffffffffffffffffffffff163373ffffffffffffffffffffffffffffffffffffffff1614806104365750600260003373ffffffffffffffffffffffffffffffffffffffff1673ffffffffffffffffffffffffffffffffffffffff16815260200190815260200160002060009054906101000a900460ff165b151561044157600080fd5b6000600160008373ffffffffffffffffffffffffffffffffffffffff1673ffffffffffffffffffffffffffffffffffffffff16815260200190815260200160002060006101000a81548160ff0219169083151502179055507f33d0d89e288cea062f5110ae3a0bf917635890adcbe49fe4d7a9ac29e144961c81604051808273ffffffffffffffffffffffffffffffffffffffff1673ffffffffffffffffffffffffffffffffffffffff16815260200191505060405180910390a150565b60008060009054906101000a900473ffffffffffffffffffffffffffffffffffffffff1673ffffffffffffffffffffffffffffffffffffffff163373ffffffffffffffffffffffffffffffffffffffff1614806105a55750600260003373ffffffffffffffffffffffffffffffffffffffff1673ffffffffffffffffffffffffffffffffffffffff16815260200190815260200160002060009054906101000a900460ff165b15156105b057600080fd5b600090505b828290508110156106db57600180600085858581811015156105d357fe5b9050602002013573ffffffffffffffffffffffffffffffffffffffff1673ffffffffffffffffffffffffffffffffffffffff1673ffffffffffffffffffffffffffffffffffffffff16815260200190815260200160002060006101000a81548160ff0219169083151502179055507fd468949f4e5b5d8546cbaea47570a19d5f7cf568a5625a782526c7b634b3813c838383818110151561067057fe5b9050602002013573ffffffffffffffffffffffffffffffffffffffff16604051808273ffffffffffffffffffffffffffffffffffffffff1673ffffffffffffffffffffffffffffffffffffffff16815260200191505060405180910390a180806001019150506105b5565b505050565b6000809054906101000a900473ffffffffffffffffffffffffffffffffffffffff1681565b60016020528060005260406000206000915054906101000a900460ff1681565b6000809054906101000a900473ffffffffffffffffffffffffffffffffffffffff1673ffffffffffffffffffffffffffffffffffffffff163373ffffffffffffffffffffffffffffffffffffffff1614151561078057600080fd5b6000600260008373ffffffffffffffffffffffffffffffffffffffff1673ffffffffffffffffffffffffffffffffffffffff16815260200190815260200160002060006101000a81548160ff02191690831515021790555050565b6000809054906101000a900473ffffffffffffffffffffffffffffffffffffffff1673ffffffffffffffffffffffffffffffffffffffff163373ffffffffffffffffffffffffffffffffffffffff1614151561083657600080fd5b6001600260008373ffffffffffffffffffffffffffffffffffffffff1673ffffffffffffffffffffffffffffffffffffffff16815260200190815260200160002060006101000a81548160ff02191690831515021790555050565b60026020528060005260406000206000915054906101000a900460ff1681565b6000809054906101000a900473ffffffffffffffffffffffffffffffffffffffff1673ffffffffffffffffffffffffffffffffffffffff163373ffffffffffffffffffffffffffffffffffffffff1614806109555750600260003373ffffffffffffffffffffffffffffffffffffffff1673ffffffffffffffffffffffffffffffffffffffff16815260200190815260200160002060009054906101000a900460ff165b151561096057600080fd5b60018060008373ffffffffffffffffffffffffffffffffffffffff1673ffffffffffffffffffffffffffffffffffffffff16815260200190815260200160002060006101000a81548160ff0219169083151502179055507fd468949f4e5b5d8546cbaea47570a19d5f7cf568a5625a782526c7b634b3813c81604051808273ffffffffffffffffffffffffffffffffffffffff1673ffffffffffffffffffffffffffffffffffffffff16815260200191505060405180910390a150565b6000809054906101000a900473ffffffffffffffffffffffffffffffffffffffff1673ffffffffffffffffffffffffffffffffffffffff163373ffffffffffffffffffffffffffffffffffffffff16141515610a7857600080fd5b600073ffffffffffffffffffffffffffffffffffffffff168173ffffffffffffffffffffffffffffffffffffffff1614151515610ab457600080fd5b8073ffffffffffffffffffffffffffffffffffffffff166000809054906101000a900473ffffffffffffffffffffffffffffffffffffffff1673ffffffffffffffffffffffffffffffffffffffff167f8be0079c531659141344cd1fd0a4f28419497f9722a3daafe3b4186f6b6457e060405160405180910390a3806000806101000a81548173ffffffffffffffffffffffffffffffffffffffff021916908373ffffffffffffffffffffffffffffffffffffffff160217905550505600a165627a7a7230582001610c54a95ec0e569b4297f809ba0bb238209e5020655f37506d85c948cf2510029",
  "source": "pragma solidity ^ 0.4.18;\n\nimport \"zeppelin-solidity/contracts/ownership/Ownable.sol\";\n\n\n/**\n * @title Whitelist\n * @dev List of whitelisted users who can contribute.\n */\ncontract Whitelist is Ownable {\n    mapping(address => bool) public whitelist;\n    mapping(address => bool) public authorized;\n\n    event UserAllowed(address user);\n    event UserDisallowed(address user);\n\n    modifier onlyAuthorized {\n        require(msg.sender == owner || authorized[msg.sender]);\n        _;\n    }\n\n    /**\n    * @dev Adds single address to admins.\n    * @param _admin Address to be added to the admins\n    */\n    function authorize(address _admin) external onlyOwner {\n        authorized[_admin] = true;\n    }\n\n    /**\n    * @dev Removes single address from admins.\n    * @param _admin Address to be removed from the admins\n    */\n    function reject(address _admin) external onlyOwner {\n        authorized[_admin] = false;\n    }\n\n    /**\n    * @dev Adds single address to whitelist.\n    * @param _beneficiary Address to be added to the whitelist\n    */\n    function addToWhitelist(address _beneficiary) external onlyAuthorized {\n        whitelist[_beneficiary] = true;\n        UserAllowed(_beneficiary);\n    }\n\n    /**\n    * @dev Adds list of addresses to whitelist. Not overloaded due to limitations with truffle testing.\n    * @param _beneficiaries Addresses to be added to the whitelist\n    */\n    function addManyToWhitelist(address[] _beneficiaries) external onlyAuthorized {\n        for (uint i = 0; i < _beneficiaries.length; i++) {\n            whitelist[_beneficiaries[i]] = true;\n            UserAllowed(_beneficiaries[i]);\n        }\n    }\n\n    /**\n    * @dev Removes single address from whitelist.\n    * @param _beneficiary Address to be removed to the whitelist\n    */\n    function removeFromWhitelist(address _beneficiary) external onlyAuthorized {\n        whitelist[_beneficiary] = false;\n        UserDisallowed(_beneficiary);\n    }\n\n    /**\n    * @dev Tells whether the given address is whitelisted or not\n    * @param _beneficiary Address to be checked\n    */\n    function isWhitelisted(address _beneficiary) public view returns (bool) {\n        return whitelist[_beneficiary];\n    }\n}\n",
  "sourcePath": "/media/jeroen/temp/vu.token/contracts/crowdsale/Whitelist.sol",
  "compiler": {
    "name": "solc",
    "version": "0.4.21+commit.dfe3193c.Emscripten.clang"
  },
  "schemaVersion": "2.0.0",
  "updatedAt": "2018-04-05T21:38:47.552Z"
}